{
  "_format": "hh-sol-artifact-1",
  "contractName": "FHECampusReputationMock",
  "sourceName": "contracts/FHE/FHECampusReputationMock.sol",
  "abi": [
    {
      "inputs": [],
      "stateMutability": "nonpayable",
      "type": "constructor"
    },
    {
      "anonymous": false,
      "inputs": [
        {
          "indexed": true,
          "internalType": "address",
          "name": "user",
          "type": "address"
        }
      ],
      "name": "ReputationUpdated",
      "type": "event"
    },
    {
      "inputs": [],
      "name": "acl",
      "outputs": [
        {
          "internalType": "contract ACLMock",
          "name": "",
          "type": "address"
        }
      ],
      "stateMutability": "view",
      "type": "function"
    },
    {
      "inputs": [
        {
          "internalType": "externalEuint32",
          "name": "encryptedValue",
          "type": "bytes32"
        },
        {
          "internalType": "bytes",
          "name": "inputProof",
          "type": "bytes"
        }
      ],
      "name": "addXP",
      "outputs": [],
      "stateMutability": "nonpayable",
      "type": "function"
    },
    {
      "inputs": [],
      "name": "cop",
      "outputs": [
        {
          "internalType": "contract CoprocessorMock",
          "name": "",
          "type": "address"
        }
      ],
      "stateMutability": "view",
      "type": "function"
    },
    {
      "inputs": [],
      "name": "deployMocks",
      "outputs": [
        {
          "internalType": "address",
          "name": "",
          "type": "address"
        },
        {
          "internalType": "address",
          "name": "",
          "type": "address"
        },
        {
          "internalType": "address",
          "name": "",
          "type": "address"
        },
        {
          "internalType": "address",
          "name": "",
          "type": "address"
        }
      ],
      "stateMutability": "view",
      "type": "function"
    },
    {
      "inputs": [],
      "name": "getEncryptedLevel",
      "outputs": [
        {
          "internalType": "euint32",
          "name": "",
          "type": "bytes32"
        }
      ],
      "stateMutability": "view",
      "type": "function"
    },
    {
      "inputs": [],
      "name": "getEncryptedXP",
      "outputs": [
        {
          "internalType": "euint32",
          "name": "",
          "type": "bytes32"
        }
      ],
      "stateMutability": "view",
      "type": "function"
    },
    {
      "inputs": [],
      "name": "kms",
      "outputs": [
        {
          "internalType": "contract VerifierMock",
          "name": "",
          "type": "address"
        }
      ],
      "stateMutability": "view",
      "type": "function"
    },
    {
      "inputs": [],
      "name": "oracle",
      "outputs": [
        {
          "internalType": "contract DecryptionOracleMock",
          "name": "",
          "type": "address"
        }
      ],
      "stateMutability": "view",
      "type": "function"
    }
  ],
  "bytecode": "0x608060405234801561001057600080fd5b5060405161001d9061013a565b604051809103906000f080158015610039573d6000803e3d6000fd5b50600080546001600160a01b0319166001600160a01b039290921691909117905560405161006690610146565b604051809103906000f080158015610082573d6000803e3d6000fd5b50600180546001600160a01b0319166001600160a01b03929092169190911790556040516100af90610152565b604051809103906000f0801580156100cb573d6000803e3d6000fd5b50600280546001600160a01b0319166001600160a01b03929092169190911790556040516100f89061015f565b604051809103906000f080158015610114573d6000803e3d6000fd5b50600380546001600160a01b0319166001600160a01b039290921691909117905561016c565b60dd80610a2b83390190565b60ea80610b0883390190565b61017f80610bf283390190565b61011580610d7183390190565b6108b08061017b6000396000f3fe608060405234801561001057600080fd5b50600436106100885760003560e01c806391fda27b1161005b57806391fda27b14610102578063de28735914610117578063e48ded441461012a578063f78a95751461014257600080fd5b80635f7efbea1461008d578063631c3073146100bd57806378a48ea2146100d05780637dc0d1d0146100ef575b600080fd5b6001546100a0906001600160a01b031681565b6040516001600160a01b0390911681526020015b60405180910390f35b6003546100a0906001600160a01b031681565b336000908152600460205260409020545b6040519081526020016100b4565b6002546100a0906001600160a01b031681565b610115610110366004610724565b610182565b005b6000546100a0906001600160a01b031681565b336000908152600460205260409020600101546100e1565b600054600154600254600354604080516001600160a01b0395861681529385166020850152918416918301919091529190911660608201526080016100b4565b60006101c48484848080601f0160208091040260200160405190810160405280939291908181526020018383808284376000920191909152506102d592505050565b336000908152600460205260409020549091506101f6576101e560006102ea565b336000908152600460205260409020555b336000908152600460205260409020546102109082610303565b33600090815260046020526040902081905561022d906064610335565b3360008181526004602052604090206001810192909255905461024f91610359565b503360008181526004602052604090206001015461026c91610359565b50336000908152600460205260409020546102869061036c565b50336000908152600460205260409020600101546102a39061036c565b5060405133907fe127cf589a3879da0156d4a24f43b44f65cfa3570de594806b0bfa2fcf06884f90600090a250505050565b60006102e38383600461037c565b9392505050565b60006102fd8263ffffffff166004610493565b92915050565b6000826103175761031460006102ea565b92505b816103295761032660006102ea565b91505b6102e383836000610542565b6000826103495761034660006102ea565b92505b6102e38363ffffffff84166105fe565b600061036583836106a7565b5090919050565b600061037882306106a7565b5090565b7f9e7b61f58c47dc699ac88507c4f5bb9f121c03808c5676a8078fe583e46497015460405163196d0b9b60e01b815260009160008051602061085b833981519152916001600160a01b039091169063196d0b9b906103e49088903390899089906004016107c2565b6020604051808303816000875af1158015610403573d6000803e3d6000fd5b505050506040513d601f19601f82011682018060405250810190610427919061082d565b8154604051630f8e573b60e21b8152600481018390523360248201529193506001600160a01b031690633e395cec90604401600060405180830381600087803b15801561047357600080fd5b505af1158015610487573d6000803e3d6000fd5b50505050509392505050565b7f9e7b61f58c47dc699ac88507c4f5bb9f121c03808c5676a8078fe583e464970154604051639cd07acb60e01b815260009160008051602061085b833981519152916001600160a01b0390911690639cd07acb906104f79087908790600401610846565b6020604051808303816000875af1158015610516573d6000803e3d6000fd5b505050506040513d601f19601f8201168201806040525081019061053a919061082d565b949350505050565b60008082156105565750600160f81b61055a565b5060005b600060008051602061085b833981519152600181015460405163022f65e760e31b815260048101899052602481018890526001600160f81b0319851660448201529192506001600160a01b03169063117b2f38906064016020604051808303816000875af11580156105d0573d6000803e3d6000fd5b505050506040513d601f19601f820116820180604052508101906105f4919061082d565b9695505050505050565b6000600160f81b8160008051602061085b8339815191526001810154604051635a53accb60e01b815260048101889052602481018790526001600160f81b0319851660448201529192506001600160a01b031690635a53accb906064016020604051808303816000875af115801561067a573d6000803e3d6000fd5b505050506040513d601f19601f8201168201806040525081019061069e919061082d565b95945050505050565b600060008051602061085b8339815191528054604051635ca4b5b160e11b8152600481018690526001600160a01b03858116602483015292935091169063b9496b6290604401600060405180830381600087803b15801561070757600080fd5b505af115801561071b573d6000803e3d6000fd5b50505050505050565b60008060006040848603121561073957600080fd5b83359250602084013567ffffffffffffffff8082111561075857600080fd5b818601915086601f83011261076c57600080fd5b81358181111561077b57600080fd5b87602082850101111561078d57600080fd5b6020830194508093505050509250925092565b605481106107be57634e487b7160e01b600052602160045260246000fd5b9052565b8481526000602060018060a01b038616602084015260806040840152845180608085015260005b818110156108055786810183015185820160a0015282016107e9565b50600060a0828601015260a0601f19601f8301168501019250505061069e60608301846107a0565b60006020828403121561083f57600080fd5b5051919050565b828152604081016102e360208301846107a056fe9e7b61f58c47dc699ac88507c4f5bb9f121c03808c5676a8078fe583e4649700a264697066735822122066b3ccd2897cc7bdbf6f6b1cc9a857be37e3d4761b84e0260dc20166f8c51fd964736f6c634300081900336080604052348015600f57600080fd5b5060c080601d6000396000f3fe6080604052348015600f57600080fd5b506004361060285760003560e01c8063253bd7b714602d575b600080fd5b604060383660046054565b600192915050565b604051901515815260200160405180910390f35b60008060408385031215606657600080fd5b82356001600160a01b0381168114607c57600080fd5b94602093909301359350505056fea2646970667358221220af9911b09f7fdc52db5358fb554c9512f4c7e23e662e2f039a709635cf013f7e64736f6c634300081900336080604052348015600f57600080fd5b5060cd80601d6000396000f3fe6080604052348015600f57600080fd5b506004361060285760003560e01c8063e073543414602d575b600080fd5b604160383660046053565b60019392505050565b60405190815260200160405180910390f35b600080600060608486031215606757600080fd5b833592506020840135915060408401356001600160f81b031981168114608c57600080fd5b80915050925092509256fea264697066735822122034a59d73414b1bab25fd114e0aa178ebc4b77c2d4ea9019baee0cfad1befffcb64736f6c634300081900336080604052348015600f57600080fd5b506101608061001f6000396000f3fe608060405234801561001057600080fd5b506004361061002b5760003560e01c8063cee0473114610030575b600080fd5b61004461003e36600461006c565b50600190565b60405190815260200160405180910390f35b634e487b7160e01b600052604160045260246000fd5b6000602080838503121561007f57600080fd5b823567ffffffffffffffff8082111561009757600080fd5b818501915085601f8301126100ab57600080fd5b8135818111156100bd576100bd610056565b8060051b604051601f19603f830116810181811085821117156100e2576100e2610056565b60405291825284820192508381018501918883111561010057600080fd5b938501935b8285101561011e57843584529385019392850192610105565b9897505050505050505056fea264697066735822122008d3e4a6d6b600265bdc378b85e8baea8debbf1f191ab8fcc7a1922774c560fe64736f6c634300081900336080604052348015600f57600080fd5b5060f78061001e6000396000f3fe6080604052348015600f57600080fd5b506004361060285760003560e01c80638e760afe14602d575b600080fd5b604060383660046054565b600192915050565b604051901515815260200160405180910390f35b60008060208385031215606657600080fd5b823567ffffffffffffffff80821115607d57600080fd5b818501915085601f830112609057600080fd5b813581811115609e57600080fd5b86602082850101111560af57600080fd5b6020929092019691955090935050505056fea2646970667358221220dea8d5f4ba220a1a0d8d04f313aeeb6b31c68ad9f8be7f51357c8f482e340f6264736f6c63430008190033",
  "linkReferences": {},
  "deployedLinkReferences": {}
}