{
  "_format": "hh-sol-artifact-1",
  "contractName": "ZamaMockConfig",
  "sourceName": "contracts/FHE/mocks/ZamaMockConfig.sol",
  "abi": [
    {
      "inputs": [],
      "stateMutability": "nonpayable",
      "type": "constructor"
    },
    {
      "inputs": [],
      "name": "acl",
      "outputs": [
        {
          "internalType": "contract ACLMock",
          "name": "",
          "type": "address"
        }
      ],
      "stateMutability": "view",
      "type": "function"
    },
    {
      "inputs": [],
      "name": "cop",
      "outputs": [
        {
          "internalType": "contract CoprocessorMock",
          "name": "",
          "type": "address"
        }
      ],
      "stateMutability": "view",
      "type": "function"
    },
    {
      "inputs": [],
      "name": "deployMocks",
      "outputs": [
        {
          "internalType": "address",
          "name": "",
          "type": "address"
        },
        {
          "internalType": "address",
          "name": "",
          "type": "address"
        },
        {
          "internalType": "address",
          "name": "",
          "type": "address"
        },
        {
          "internalType": "address",
          "name": "",
          "type": "address"
        }
      ],
      "stateMutability": "view",
      "type": "function"
    },
    {
      "inputs": [],
      "name": "kms",
      "outputs": [
        {
          "internalType": "contract VerifierMock",
          "name": "",
          "type": "address"
        }
      ],
      "stateMutability": "view",
      "type": "function"
    },
    {
      "inputs": [],
      "name": "oracle",
      "outputs": [
        {
          "internalType": "contract DecryptionOracleMock",
          "name": "",
          "type": "address"
        }
      ],
      "stateMutability": "view",
      "type": "function"
    }
  ],
  "bytecode": "0x608060405234801561001057600080fd5b5060405161001d9061013a565b604051809103906000f080158015610039573d6000803e3d6000fd5b50600080546001600160a01b0319166001600160a01b039290921691909117905560405161006690610146565b604051809103906000f080158015610082573d6000803e3d6000fd5b50600180546001600160a01b0319166001600160a01b03929092169190911790556040516100af90610152565b604051809103906000f0801580156100cb573d6000803e3d6000fd5b50600280546001600160a01b0319166001600160a01b03929092169190911790556040516100f89061015f565b604051809103906000f080158015610114573d6000803e3d6000fd5b50600380546001600160a01b0319166001600160a01b039290921691909117905561016c565b60dd806102aa83390190565b60ea8061038783390190565b61017f8061047183390190565b610115806105f083390190565b61012f8061017b6000396000f3fe6080604052348015600f57600080fd5b506004361060505760003560e01c80635f7efbea146055578063631c30731460845780637dc0d1d0146096578063de2873591460a8578063f78a95751460ba575b600080fd5b6001546067906001600160a01b031681565b6040516001600160a01b0390911681526020015b60405180910390f35b6003546067906001600160a01b031681565b6002546067906001600160a01b031681565b6000546067906001600160a01b031681565b600054600154600254600354604080516001600160a01b039586168152938516602085015291841691830191909152919091166060820152608001607b56fea26469706673582212207737767518aee7a32cc08999a6c32a5359daf9ac8336da51ee4867b12668abc764736f6c634300081900336080604052348015600f57600080fd5b5060c080601d6000396000f3fe6080604052348015600f57600080fd5b506004361060285760003560e01c8063253bd7b714602d575b600080fd5b604060383660046054565b600192915050565b604051901515815260200160405180910390f35b60008060408385031215606657600080fd5b82356001600160a01b0381168114607c57600080fd5b94602093909301359350505056fea2646970667358221220af9911b09f7fdc52db5358fb554c9512f4c7e23e662e2f039a709635cf013f7e64736f6c634300081900336080604052348015600f57600080fd5b5060cd80601d6000396000f3fe6080604052348015600f57600080fd5b506004361060285760003560e01c8063e073543414602d575b600080fd5b604160383660046053565b60019392505050565b60405190815260200160405180910390f35b600080600060608486031215606757600080fd5b833592506020840135915060408401356001600160f81b031981168114608c57600080fd5b80915050925092509256fea264697066735822122034a59d73414b1bab25fd114e0aa178ebc4b77c2d4ea9019baee0cfad1befffcb64736f6c634300081900336080604052348015600f57600080fd5b506101608061001f6000396000f3fe608060405234801561001057600080fd5b506004361061002b5760003560e01c8063cee0473114610030575b600080fd5b61004461003e36600461006c565b50600190565b60405190815260200160405180910390f35b634e487b7160e01b600052604160045260246000fd5b6000602080838503121561007f57600080fd5b823567ffffffffffffffff8082111561009757600080fd5b818501915085601f8301126100ab57600080fd5b8135818111156100bd576100bd610056565b8060051b604051601f19603f830116810181811085821117156100e2576100e2610056565b60405291825284820192508381018501918883111561010057600080fd5b938501935b8285101561011e57843584529385019392850192610105565b9897505050505050505056fea264697066735822122008d3e4a6d6b600265bdc378b85e8baea8debbf1f191ab8fcc7a1922774c560fe64736f6c634300081900336080604052348015600f57600080fd5b5060f78061001e6000396000f3fe6080604052348015600f57600080fd5b506004361060285760003560e01c80638e760afe14602d575b600080fd5b604060383660046054565b600192915050565b604051901515815260200160405180910390f35b60008060208385031215606657600080fd5b823567ffffffffffffffff80821115607d57600080fd5b818501915085601f830112609057600080fd5b813581811115609e57600080fd5b86602082850101111560af57600080fd5b6020929092019691955090935050505056fea2646970667358221220dea8d5f4ba220a1a0d8d04f313aeeb6b31c68ad9f8be7f51357c8f482e340f6264736f6c63430008190033",
  "linkReferences": {},
  "deployedLinkReferences": {}
}