{
  "_format": "hh-sol-artifact-1",
  "contractName": "EncryptedCampusState",
  "sourceName": "contracts/EncryptedCampusState.sol",
  "abi": [
    {
      "inputs": [],
      "stateMutability": "nonpayable",
      "type": "constructor"
    },
    {
      "inputs": [],
      "name": "ZamaProtocolUnsupported",
      "type": "error"
    },
    {
      "anonymous": false,
      "inputs": [
        {
          "indexed": true,
          "internalType": "bytes32",
          "name": "groupId",
          "type": "bytes32"
        },
        {
          "indexed": true,
          "internalType": "address",
          "name": "user",
          "type": "address"
        }
      ],
      "name": "MembershipUpdated",
      "type": "event"
    },
    {
      "anonymous": false,
      "inputs": [
        {
          "indexed": true,
          "internalType": "bytes32",
          "name": "metricId",
          "type": "bytes32"
        }
      ],
      "name": "MetricUpdated",
      "type": "event"
    },
    {
      "anonymous": false,
      "inputs": [
        {
          "indexed": true,
          "internalType": "bytes32",
          "name": "pollId",
          "type": "bytes32"
        },
        {
          "indexed": false,
          "internalType": "uint8",
          "name": "maxOption",
          "type": "uint8"
        }
      ],
      "name": "PollCreated",
      "type": "event"
    },
    {
      "anonymous": false,
      "inputs": [
        {
          "indexed": true,
          "internalType": "bytes32",
          "name": "pollId",
          "type": "bytes32"
        }
      ],
      "name": "PollSealed",
      "type": "event"
    },
    {
      "anonymous": false,
      "inputs": [
        {
          "indexed": true,
          "internalType": "bytes32",
          "name": "groupId",
          "type": "bytes32"
        },
        {
          "indexed": true,
          "internalType": "address",
          "name": "user",
          "type": "address"
        }
      ],
      "name": "ReputationUpdated",
      "type": "event"
    },
    {
      "anonymous": false,
      "inputs": [
        {
          "indexed": true,
          "internalType": "bytes32",
          "name": "pollId",
          "type": "bytes32"
        },
        {
          "indexed": true,
          "internalType": "address",
          "name": "voter",
          "type": "address"
        }
      ],
      "name": "VoteCast",
      "type": "event"
    },
    {
      "inputs": [
        {
          "internalType": "bytes32",
          "name": "groupId",
          "type": "bytes32"
        },
        {
          "internalType": "address",
          "name": "user",
          "type": "address"
        },
        {
          "internalType": "uint64",
          "name": "delta",
          "type": "uint64"
        }
      ],
      "name": "addReputation",
      "outputs": [],
      "stateMutability": "nonpayable",
      "type": "function"
    },
    {
      "inputs": [
        {
          "internalType": "bytes32",
          "name": "groupId",
          "type": "bytes32"
        },
        {
          "internalType": "address",
          "name": "user",
          "type": "address"
        },
        {
          "internalType": "externalEuint64",
          "name": "encDelta",
          "type": "bytes32"
        },
        {
          "internalType": "bytes",
          "name": "inputProof",
          "type": "bytes"
        }
      ],
      "name": "addReputationEncrypted",
      "outputs": [],
      "stateMutability": "nonpayable",
      "type": "function"
    },
    {
      "inputs": [],
      "name": "admin",
      "outputs": [
        {
          "internalType": "address",
          "name": "",
          "type": "address"
        }
      ],
      "stateMutability": "view",
      "type": "function"
    },
    {
      "inputs": [
        {
          "internalType": "bytes32",
          "name": "pollId",
          "type": "bytes32"
        },
        {
          "internalType": "externalEuint8",
          "name": "encOption",
          "type": "bytes32"
        },
        {
          "internalType": "bytes",
          "name": "inputProof",
          "type": "bytes"
        }
      ],
      "name": "castVoteEncrypted",
      "outputs": [],
      "stateMutability": "nonpayable",
      "type": "function"
    },
    {
      "inputs": [],
      "name": "confidentialProtocolId",
      "outputs": [
        {
          "internalType": "uint256",
          "name": "",
          "type": "uint256"
        }
      ],
      "stateMutability": "view",
      "type": "function"
    },
    {
      "inputs": [
        {
          "internalType": "bytes32",
          "name": "pollId",
          "type": "bytes32"
        },
        {
          "internalType": "uint8",
          "name": "maxOption",
          "type": "uint8"
        }
      ],
      "name": "createPoll",
      "outputs": [],
      "stateMutability": "nonpayable",
      "type": "function"
    },
    {
      "inputs": [
        {
          "internalType": "bytes32",
          "name": "groupId",
          "type": "bytes32"
        },
        {
          "internalType": "address",
          "name": "user",
          "type": "address"
        }
      ],
      "name": "getMembershipHandle",
      "outputs": [
        {
          "internalType": "ebool",
          "name": "",
          "type": "bytes32"
        }
      ],
      "stateMutability": "view",
      "type": "function"
    },
    {
      "inputs": [
        {
          "internalType": "bytes32",
          "name": "metricId",
          "type": "bytes32"
        }
      ],
      "name": "getMetricHandle",
      "outputs": [
        {
          "internalType": "euint64",
          "name": "",
          "type": "bytes32"
        }
      ],
      "stateMutability": "view",
      "type": "function"
    },
    {
      "inputs": [
        {
          "internalType": "bytes32",
          "name": "groupId",
          "type": "bytes32"
        },
        {
          "internalType": "address",
          "name": "user",
          "type": "address"
        }
      ],
      "name": "getReputationHandle",
      "outputs": [
        {
          "internalType": "euint64",
          "name": "",
          "type": "bytes32"
        }
      ],
      "stateMutability": "view",
      "type": "function"
    },
    {
      "inputs": [
        {
          "internalType": "bytes32",
          "name": "pollId",
          "type": "bytes32"
        },
        {
          "internalType": "uint8",
          "name": "option",
          "type": "uint8"
        }
      ],
      "name": "getTallyHandle",
      "outputs": [
        {
          "internalType": "euint64",
          "name": "",
          "type": "bytes32"
        }
      ],
      "stateMutability": "view",
      "type": "function"
    },
    {
      "inputs": [
        {
          "internalType": "bytes32",
          "name": "",
          "type": "bytes32"
        },
        {
          "internalType": "address",
          "name": "",
          "type": "address"
        }
      ],
      "name": "hasVoted",
      "outputs": [
        {
          "internalType": "bool",
          "name": "",
          "type": "bool"
        }
      ],
      "stateMutability": "view",
      "type": "function"
    },
    {
      "inputs": [
        {
          "internalType": "bytes32",
          "name": "metricId",
          "type": "bytes32"
        },
        {
          "internalType": "uint64",
          "name": "delta",
          "type": "uint64"
        }
      ],
      "name": "incrementMetric",
      "outputs": [],
      "stateMutability": "nonpayable",
      "type": "function"
    },
    {
      "inputs": [
        {
          "internalType": "bytes32",
          "name": "metricId",
          "type": "bytes32"
        },
        {
          "internalType": "externalEuint64",
          "name": "encDelta",
          "type": "bytes32"
        },
        {
          "internalType": "bytes",
          "name": "inputProof",
          "type": "bytes"
        }
      ],
      "name": "incrementMetricEncrypted",
      "outputs": [],
      "stateMutability": "nonpayable",
      "type": "function"
    },
    {
      "inputs": [
        {
          "internalType": "bytes32",
          "name": "groupId",
          "type": "bytes32"
        },
        {
          "internalType": "address",
          "name": "user",
          "type": "address"
        },
        {
          "internalType": "uint64",
          "name": "initialValue",
          "type": "uint64"
        }
      ],
      "name": "initReputation",
      "outputs": [],
      "stateMutability": "nonpayable",
      "type": "function"
    },
    {
      "inputs": [
        {
          "internalType": "bytes32",
          "name": "",
          "type": "bytes32"
        }
      ],
      "name": "polls",
      "outputs": [
        {
          "internalType": "uint8",
          "name": "maxOption",
          "type": "uint8"
        },
        {
          "internalType": "bool",
          "name": "exists",
          "type": "bool"
        },
        {
          "internalType": "bool",
          "name": "isSealed",
          "type": "bool"
        }
      ],
      "stateMutability": "view",
      "type": "function"
    },
    {
      "inputs": [
        {
          "internalType": "bytes32",
          "name": "pollId",
          "type": "bytes32"
        }
      ],
      "name": "sealPoll",
      "outputs": [],
      "stateMutability": "nonpayable",
      "type": "function"
    },
    {
      "inputs": [
        {
          "internalType": "bytes32",
          "name": "groupId",
          "type": "bytes32"
        },
        {
          "internalType": "address",
          "name": "user",
          "type": "address"
        },
        {
          "internalType": "bool",
          "name": "isActive",
          "type": "bool"
        }
      ],
      "name": "setMembership",
      "outputs": [],
      "stateMutability": "nonpayable",
      "type": "function"
    },
    {
      "inputs": [
        {
          "internalType": "bytes32",
          "name": "groupId",
          "type": "bytes32"
        },
        {
          "internalType": "address",
          "name": "user",
          "type": "address"
        },
        {
          "internalType": "externalEbool",
          "name": "encFlag",
          "type": "bytes32"
        },
        {
          "internalType": "bytes",
          "name": "inputProof",
          "type": "bytes"
        }
      ],
      "name": "setMembershipEncrypted",
      "outputs": [],
      "stateMutability": "nonpayable",
      "type": "function"
    }
  ],
  "bytecode": "0x608060405234801561000f575f5ffd5b506100c461001b6100da565b80517f9e7b61f58c47dc699ac88507c4f5bb9f121c03808c5676a8078fe583e464970080546001600160a01b03199081166001600160a01b039384161790915560208301517f9e7b61f58c47dc699ac88507c4f5bb9f121c03808c5676a8078fe583e46497018054831691841691909117905560408301517f9e7b61f58c47dc699ac88507c4f5bb9f121c03808c5676a8078fe583e46497028054909216921691909117905550565b5f80546001600160a01b03191633179055610249565b604080516060810182525f808252602082018190529181019190915246600103610133575060408051606080820183525f8083526020808401829052928401819052835191820184528082529181018290529182015290565b4662aa36a7036101b2575060408051606080820183525f8083526020808401829052928401528251908101835273f0ffdc93b7e186bc2f8cb3daa75d86d1930a433d81527392c920834ec8941d2c77d188936e1f7a6f49c1279181019190915273be0e383937d564d7ff0bc3b46c51f0bf8d5c311a9181019190915290565b46617a6903610230575060408051606080820183525f8083526020808401829052928401528251908101835273f0ffdc93b7e186bc2f8cb3daa75d86d1930a433d81527392c920834ec8941d2c77d188936e1f7a6f49c1279181019190915273be0e383937d564d7ff0bc3b46c51f0bf8d5c311a9181019190915290565b6040516373cac13b60e01b815260040160405180910390fd5b6118f9806102565f395ff3fe608060405234801561000f575f5ffd5b506004361061012f575f3560e01c806361ed51ea116100ad5780638f8209731161007d578063b760578c11610063578063b760578c14610327578063f0e6cc8514610346578063f851a44014610359575f5ffd5b80638f820973146102d7578063aadc3b72146102ea575f5ffd5b806361ed51ea1461029657806363e513d4146102a95780637e9c0129146102bc5780638927b030146102cf575f5ffd5b8063367d776b1161010257806348489be9116100e857806348489be91461021a57806355458f4a1461022d5780635c00945714610283575f5ffd5b8063367d776b146101d85780634750719714610207575f5ffd5b8063027d959f1461013357806305d5e551146101485780630bf7e6221461015b5780631cc351f0146101a3575b5f5ffd5b610146610141366004611620565b610383565b005b61014661015636600461169e565b610497565b610190610169366004611701565b5f9182526002602090815260408084206001600160a01b0393909316845291905290205490565b6040519081526020015b60405180910390f35b6101906101b1366004611701565b5f9182526001602090815260408084206001600160a01b0393909316845291905290205490565b6101906101e636600461172b565b5f91825260056020908152604080842060ff93909316845291905290205490565b61014661021536600461172b565b6105e4565b61014661022836600461175e565b6107a6565b61026261023b3660046117ad565b60036020525f908152604090205460ff808216916101008104821691620100009091041683565b6040805160ff9094168452911515602084015215159082015260600161019a565b61014661029136600461175e565b610a4d565b6101466102a43660046117ad565b610b66565b6101466102b736600461169e565b610c93565b6101466102ca3660046117c4565b610d9d565b610190610e73565b6101466102e5366004611620565b610e81565b6103176102f8366004611701565b600460209081525f928352604080842090915290825290205460ff1681565b604051901515815260200161019a565b6101906103353660046117ad565b5f9081526006602052604090205490565b6101466103543660046117e5565b610efe565b5f5461036b906001600160a01b031681565b6040516001600160a01b03909116815260200161019a565b5f546001600160a01b031633146103ce5760405162461bcd60e51b815260206004820152600a60248201526927b7363c9030b236b4b760b11b60448201526064015b60405180910390fd5b5f8381526002602090815260408083206001600160a01b038616845290915290205480610401576103fe5f610fd0565b90505b5f6104148261040f85610fd0565b610fec565b5f8681526002602090815260408083206001600160a01b03891684529091529020819055905061044381611021565b505f5461045a9082906001600160a01b0316611030565b506040516001600160a01b0385169086907f41178a57fdb268cb2ef3d47f1020d96ef48a170f8ca2517c2ee5c9faa5298959905f90a35050505050565b5f546001600160a01b031633146104dd5760405162461bcd60e51b815260206004820152600a60248201526927b7363c9030b236b4b760b11b60448201526064016103c5565b5f61051d8484848080601f0160208091040260200160405190810160405280939291908181526020018383808284375f9201919091525061104292505050565b5f8781526002602090815260408083206001600160a01b038a16845290915290205490915080610553576105505f610fd0565b90505b5f61055e8284610fec565b5f8981526002602090815260408083206001600160a01b038c1684529091529020819055905061058d81611021565b505f546105a49082906001600160a01b0316611030565b506040516001600160a01b0388169089907f41178a57fdb268cb2ef3d47f1020d96ef48a170f8ca2517c2ee5c9faa5298959905f90a35050505050505050565b5f546001600160a01b0316331461062a5760405162461bcd60e51b815260206004820152600a60248201526927b7363c9030b236b4b760b11b60448201526064016103c5565b5f8160ff161161067c5760405162461bcd60e51b815260206004820152600d60248201527f6d61784f7074696f6e203e20300000000000000000000000000000000000000060448201526064016103c5565b5f8281526003602052604090208054610100900460ff16156106e05760405162461bcd60e51b815260206004820152600b60248201527f506f6c6c2065786973747300000000000000000000000000000000000000000060448201526064016103c5565b805462ff00001961ffff1990911660ff841617610100171681555f5b8260ff168160ff1611610768575f6107135f610fd0565b5f86815260056020908152604080832060ff871684529091529020819055905061073c81611021565b505f546107539082906001600160a01b0316611030565b5050808061076090611826565b9150506106fc565b5060405160ff8316815283907f5c6aa4168cb02e540b19fec753e4f792cb72a1a84f5cda32ad4024a16cafcff59060200160405180910390a2505050565b5f848152600360209081526040918290208251606081018452905460ff808216835261010082048116151593830184905262010000909104161515928101929092526108235760405162461bcd60e51b815260206004820152600c60248201526b506f6c6c206d697373696e6760a01b60448201526064016103c5565b8060400151156108755760405162461bcd60e51b815260206004820152600b60248201527f506f6c6c207365616c656400000000000000000000000000000000000000000060448201526064016103c5565b5f85815260046020908152604080832033845290915290205460ff16156108de5760405162461bcd60e51b815260206004820152600d60248201527f416c726561647920766f7465640000000000000000000000000000000000000060448201526064016103c5565b5f61091e8585858080601f0160208091040260200160405190810160405280939291908181526020018383808284375f9201919091525061104f92505050565b90505f5b825f015160ff168160ff16116109f7575f610945836109408461105c565b61106b565b90505f610964826109566001610fd0565b61095f5f610fd0565b611099565b5f8a815260056020908152604080832060ff8816845290915290205490915080610994576109915f610fd0565b90505b5f61099f8284610fec565b5f8c815260056020908152604080832060ff8a168452909152902081905590506109c881611021565b505f546109df9082906001600160a01b0316611030565b505050505080806109ef90611826565b915050610922565b505f868152600460209081526040808320338085529252808320805460ff1916600117905551909188917faa1c368ec955231333de5b5e0f09d0b2c72d83a2361a709edd03fb3636bd69d79190a3505050505050565b5f546001600160a01b03163314610a935760405162461bcd60e51b815260206004820152600a60248201526927b7363c9030b236b4b760b11b60448201526064016103c5565b5f610ad38484848080601f0160208091040260200160405190810160405280939291908181526020018383808284375f9201919091525061104292505050565b5f8681526006602052604090205490915080610af557610af25f610fd0565b90505b5f610b008284610fec565b5f8881526006602052604090208190559050610b1b81611021565b505f54610b329082906001600160a01b0316611030565b5060405187907f40e012020e6ab8331b999d6326845210abd95df4f0a3934d039217aa30c96224905f90a250505050505050565b5f546001600160a01b03163314610bac5760405162461bcd60e51b815260206004820152600a60248201526927b7363c9030b236b4b760b11b60448201526064016103c5565b5f8181526003602052604090208054610100900460ff16610bfe5760405162461bcd60e51b815260206004820152600c60248201526b506f6c6c206d697373696e6760a01b60448201526064016103c5565b805462010000900460ff1615610c565760405162461bcd60e51b815260206004820152600e60248201527f416c7265616479207365616c656400000000000000000000000000000000000060448201526064016103c5565b805462ff000019166201000017815560405182907f832356e36e45e63a6a6b9fb90406ec7ead876223422aee32bf2d58aecd7d2478905f90a25050565b5f546001600160a01b03163314610cd95760405162461bcd60e51b815260206004820152600a60248201526927b7363c9030b236b4b760b11b60448201526064016103c5565b5f610d198484848080601f0160208091040260200160405190810160405280939291908181526020018383808284375f920191909152506110e092505050565b5f8781526001602090815260408083206001600160a01b038a16845290915290208190559050610d4881611021565b505f54610d5f9082906001600160a01b0316611030565b506040516001600160a01b0386169087907fce911ce011406bcf13f1e32b039df3287505fb86684725bb5b38c341f4a0da8a905f90a3505050505050565b5f546001600160a01b03163314610de35760405162461bcd60e51b815260206004820152600a60248201526927b7363c9030b236b4b760b11b60448201526064016103c5565b5f8281526006602052604090205480610e0257610dff5f610fd0565b90505b5f610e108261040f85610fd0565b5f8581526006602052604090208190559050610e2b81611021565b505f54610e429082906001600160a01b0316611030565b5060405184907f40e012020e6ab8331b999d6326845210abd95df4f0a3934d039217aa30c96224905f90a250505050565b5f610e7c6110ec565b905090565b5f546001600160a01b03163314610ec75760405162461bcd60e51b815260206004820152600a60248201526927b7363c9030b236b4b760b11b60448201526064016103c5565b5f8381526002602090815260408083206001600160a01b038616845290915290205480610ef8575f61041483610fd0565b50505050565b5f546001600160a01b03163314610f445760405162461bcd60e51b815260206004820152600a60248201526927b7363c9030b236b4b760b11b60448201526064016103c5565b5f610f4e82611120565b5f8581526001602090815260408083206001600160a01b038816845290915290208190559050610f7d81611021565b505f54610f949082906001600160a01b0316611030565b506040516001600160a01b0384169085907fce911ce011406bcf13f1e32b039df3287505fb86684725bb5b38c341f4a0da8a905f90a350505050565b5f610fe68267ffffffffffffffff166005611137565b92915050565b5f82610ffe57610ffb5f610fd0565b92505b8161100f5761100c5f610fd0565b91505b61101a83835f6111ec565b9392505050565b5f61102c82306112e7565b5090565b5f61103b83836112e7565b5090919050565b5f61101a83836005611370565b5f61101a83836002611370565b5f610fe68260ff166002611137565b5f8261107d5761107a5f61105c565b92505b8161108e5761108b5f61105c565b91505b61101a83835f611490565b5f836110ab576110a85f611120565b93505b826110bc576110b95f610fd0565b92505b816110cd576110ca5f610fd0565b91505b6110d8848484611545565b949350505050565b5f61101a83835f611370565b5f466001036110fb5750600190565b4662aa36a70361110c575061271190565b46617a690361111b57505f1990565b505f90565b5f610fe68261112f575f611132565b60015b60ff165f5b7f9e7b61f58c47dc699ac88507c4f5bb9f121c03808c5676a8078fe583e464970154604051639cd07acb60e01b81525f917f9e7b61f58c47dc699ac88507c4f5bb9f121c03808c5676a8078fe583e4649700916001600160a01b0390911690639cd07acb906111ac9087908790600401611870565b6020604051808303815f875af11580156111c8573d5f5f3e3d5ffd5b505050506040513d601f19601f820116820180604052508101906110d89190611884565b5f5f82156111ff5750600160f81b611202565b505f5b7f9e7b61f58c47dc699ac88507c4f5bb9f121c03808c5676a8078fe583e46497015460405163022f65e760e31b815260048101879052602481018690527fff00000000000000000000000000000000000000000000000000000000000000831660448201527f9e7b61f58c47dc699ac88507c4f5bb9f121c03808c5676a8078fe583e4649700916001600160a01b03169063117b2f38906064015b6020604051808303815f875af11580156112b9573d5f5f3e3d5ffd5b505050506040513d601f19601f820116820180604052508101906112dd9190611884565b9695505050505050565b5f7f9e7b61f58c47dc699ac88507c4f5bb9f121c03808c5676a8078fe583e46497008054604051635ca4b5b160e11b8152600481018690526001600160a01b03858116602483015292935091169063b9496b62906044015f604051808303815f87803b158015611355575f5ffd5b505af1158015611367573d5f5f3e3d5ffd5b50505050505050565b7f9e7b61f58c47dc699ac88507c4f5bb9f121c03808c5676a8078fe583e46497015460405163045fc19560e11b81525f917f9e7b61f58c47dc699ac88507c4f5bb9f121c03808c5676a8078fe583e4649700916001600160a01b03909116906308bf832a906113e990889033908990899060040161189b565b6020604051808303815f875af1158015611405573d5f5f3e3d5ffd5b505050506040513d601f19601f820116820180604052508101906114299190611884565b8154604051630f8e573b60e21b8152600481018390523360248201529193506001600160a01b031690633e395cec906044015f604051808303815f87803b158015611472575f5ffd5b505af1158015611484573d5f5f3e3d5ffd5b50505050509392505050565b5f5f82156114a35750600160f81b6114a6565b505f5b7f9e7b61f58c47dc699ac88507c4f5bb9f121c03808c5676a8078fe583e46497015460405163f77f3f1d60e01b815260048101879052602481018690527fff00000000000000000000000000000000000000000000000000000000000000831660448201527f9e7b61f58c47dc699ac88507c4f5bb9f121c03808c5676a8078fe583e4649700916001600160a01b03169063f77f3f1d9060640161129d565b5f807f9e7b61f58c47dc699ac88507c4f5bb9f121c03808c5676a8078fe583e46497006001810154604051637702dcff60e01b81526004810188905260248101879052604481018690529192506001600160a01b031690637702dcff906064016020604051808303815f875af11580156115c1573d5f5f3e3d5ffd5b505050506040513d601f19601f820116820180604052508101906115e59190611884565b95945050505050565b80356001600160a01b0381168114611604575f5ffd5b919050565b803567ffffffffffffffff81168114611604575f5ffd5b5f5f5f60608486031215611632575f5ffd5b83359250611642602085016115ee565b915061165060408501611609565b90509250925092565b5f5f83601f840112611669575f5ffd5b50813567ffffffffffffffff811115611680575f5ffd5b602083019150836020828501011115611697575f5ffd5b9250929050565b5f5f5f5f5f608086880312156116b2575f5ffd5b853594506116c2602087016115ee565b935060408601359250606086013567ffffffffffffffff8111156116e4575f5ffd5b6116f088828901611659565b969995985093965092949392505050565b5f5f60408385031215611712575f5ffd5b82359150611722602084016115ee565b90509250929050565b5f5f6040838503121561173c575f5ffd5b82359150602083013560ff81168114611753575f5ffd5b809150509250929050565b5f5f5f5f60608587031215611771575f5ffd5b8435935060208501359250604085013567ffffffffffffffff811115611795575f5ffd5b6117a187828801611659565b95989497509550505050565b5f602082840312156117bd575f5ffd5b5035919050565b5f5f604083850312156117d5575f5ffd5b8235915061172260208401611609565b5f5f5f606084860312156117f7575f5ffd5b83359250611807602085016115ee565b91506040840135801515811461181b575f5ffd5b809150509250925092565b5f60ff821660ff810361184757634e487b7160e01b5f52601160045260245ffd5b60010192915050565b6054811061186c57634e487b7160e01b5f52602160045260245ffd5b9052565b8281526040810161101a6020830184611850565b5f60208284031215611894575f5ffd5b5051919050565b8481526001600160a01b0384166020820152608060408201525f8351806080840152806020860160a085015e5f60a0828501015260a0601f19601f8301168401019150506115e5606083018461185056fea164736f6c634300081b000a",
  "linkReferences": {},
  "deployedLinkReferences": {}
}