{
  "_format": "hh-sol-artifact-1",
  "contractName": "DecryptionOracleMock",
  "sourceName": "contracts/FHE/mocks/DecryptionOracleMock.sol",
  "abi": [
    {
      "inputs": [
        {
          "internalType": "bytes32[]",
          "name": "",
          "type": "bytes32[]"
        }
      ],
      "name": "requestDecryption",
      "outputs": [
        {
          "internalType": "uint256",
          "name": "",
          "type": "uint256"
        }
      ],
      "stateMutability": "pure",
      "type": "function"
    }
  ],
  "bytecode": "0x6080604052348015600f57600080fd5b506101608061001f6000396000f3fe608060405234801561001057600080fd5b506004361061002b5760003560e01c8063cee0473114610030575b600080fd5b61004461003e36600461006c565b50600190565b60405190815260200160405180910390f35b634e487b7160e01b600052604160045260246000fd5b6000602080838503121561007f57600080fd5b823567ffffffffffffffff8082111561009757600080fd5b818501915085601f8301126100ab57600080fd5b8135818111156100bd576100bd610056565b8060051b604051601f19603f830116810181811085821117156100e2576100e2610056565b60405291825284820192508381018501918883111561010057600080fd5b938501935b8285101561011e57843584529385019392850192610105565b9897505050505050505056fea264697066735822122008d3e4a6d6b600265bdc378b85e8baea8debbf1f191ab8fcc7a1922774c560fe64736f6c63430008190033",
  "linkReferences": {},
  "deployedLinkReferences": {}
}