{
  "_format": "hh-sol-artifact-1",
  "contractName": "PrivateCourseFallback",
  "sourceName": "contracts/PrivateCourseFallback.sol",
  "abi": [
    {
      "anonymous": false,
      "inputs": [
        {
          "indexed": true,
          "internalType": "uint256",
          "name": "courseId",
          "type": "uint256"
        },
        {
          "indexed": false,
          "internalType": "bytes",
          "name": "ciphertext",
          "type": "bytes"
        }
      ],
      "name": "CourseRegistered",
      "type": "event"
    },
    {
      "inputs": [
        {
          "internalType": "uint256",
          "name": "courseId",
          "type": "uint256"
        },
        {
          "internalType": "bytes",
          "name": "ciphertext",
          "type": "bytes"
        }
      ],
      "name": "registerCourse",
      "outputs": [],
      "stateMutability": "nonpayable",
      "type": "function"
    }
  ],
  "bytecode": "0x6080604052348015600f57600080fd5b506101658061001f6000396000f3fe608060405234801561001057600080fd5b506004361061002b5760003560e01c80639b3b8bba14610030575b600080fd5b61004361003e366004610084565b610045565b005b827f6d36e890ce6a99505728dd2ea59f2c98a288d8dbd019bf6f4422bb4378308dce8383604051610077929190610100565b60405180910390a2505050565b60008060006040848603121561009957600080fd5b83359250602084013567ffffffffffffffff808211156100b857600080fd5b818601915086601f8301126100cc57600080fd5b8135818111156100db57600080fd5b8760208285010111156100ed57600080fd5b6020830194508093505050509250925092565b60208152816020820152818360408301376000818301604090810191909152601f909201601f1916010191905056fea26469706673582212202f9ac85e2ddf23ff1176a617edee79d2d9fa69fbf14f6fc089ee01e8edb44b6f64736f6c63430008190033",
  "linkReferences": {},
  "deployedLinkReferences": {}
}