{
  "_format": "hh-sol-artifact-1",
  "contractName": "MembershipMarketplace",
  "sourceName": "contracts/MembershipMarketplace.sol",
  "abi": [
    {
      "inputs": [
        {
          "internalType": "contract MembershipPass1155",
          "name": "membershipContract",
          "type": "address"
        }
      ],
      "stateMutability": "nonpayable",
      "type": "constructor"
    },
    {
      "inputs": [],
      "name": "ReentrancyGuardReentrantCall",
      "type": "error"
    },
    {
      "anonymous": false,
      "inputs": [
        {
          "indexed": true,
          "internalType": "uint256",
          "name": "courseId",
          "type": "uint256"
        },
        {
          "indexed": true,
          "internalType": "address",
          "name": "buyer",
          "type": "address"
        },
        {
          "indexed": false,
          "internalType": "uint256",
          "name": "amountPaid",
          "type": "uint256"
        }
      ],
      "name": "PassPurchased",
      "type": "event"
    },
    {
      "inputs": [
        {
          "internalType": "uint256",
          "name": "courseId",
          "type": "uint256"
        }
      ],
      "name": "buy",
      "outputs": [],
      "stateMutability": "payable",
      "type": "function"
    },
    {
      "inputs": [],
      "name": "membership",
      "outputs": [
        {
          "internalType": "contract MembershipPass1155",
          "name": "",
          "type": "address"
        }
      ],
      "stateMutability": "view",
      "type": "function"
    },
    {
      "inputs": [],
      "name": "owner",
      "outputs": [
        {
          "internalType": "address",
          "name": "",
          "type": "address"
        }
      ],
      "stateMutability": "view",
      "type": "function"
    },
    {
      "inputs": [
        {
          "internalType": "address payable",
          "name": "to",
          "type": "address"
        },
        {
          "internalType": "uint256",
          "name": "amount",
          "type": "uint256"
        }
      ],
      "name": "withdraw",
      "outputs": [],
      "stateMutability": "nonpayable",
      "type": "function"
    }
  ],
  "bytecode": "0x60a060405234801561001057600080fd5b5060405161048438038061048483398101604081905261002f916100b1565b60016000556001600160a01b03811661008e5760405162461bcd60e51b815260206004820152601760248201527f4d656d626572736869702061646472657373207a65726f000000000000000000604482015260640160405180910390fd5b6001600160a01b0316608052600180546001600160a01b031916331790556100e1565b6000602082840312156100c357600080fd5b81516001600160a01b03811681146100da57600080fd5b9392505050565b608051610382610102600039600081816092015261011601526103826000f3fe60806040526004361061003f5760003560e01c80638da5cb5b14610044578063a2bf68b914610080578063d96a094a146100b4578063f3fef3a3146100c9575b600080fd5b34801561005057600080fd5b50600154610064906001600160a01b031681565b6040516001600160a01b03909116815260200160405180910390f35b34801561008c57600080fd5b506100647f000000000000000000000000000000000000000000000000000000000000000081565b6100c76100c23660046102fb565b6100e9565b005b3480156100d557600080fd5b506100c76100e4366004610314565b6101bf565b6100f16102d1565b6040516313dfbea760e21b8152336004820152602481018290523460448201819052907f00000000000000000000000000000000000000000000000000000000000000006001600160a01b031690634f7efa9c90606401600060405180830381600087803b15801561016257600080fd5b505af1158015610176573d6000803e3d6000fd5b50506040518381523392508491507f4e1920c80a682117856af1446f309135172da07bc0cc0f98bca93ae74aafe12a9060200160405180910390a3506101bc6001600055565b50565b6001546001600160a01b0316331461020a5760405162461bcd60e51b81526020600482015260096024820152682737ba1037bbb732b960b91b60448201526064015b60405180910390fd5b6001600160a01b03821661024f5760405162461bcd60e51b815260206004820152600c60248201526b5a65726f206164647265737360a01b6044820152606401610201565b478111156102965760405162461bcd60e51b8152602060048201526014602482015273496e73756666696369656e742062616c616e636560601b6044820152606401610201565b6040516001600160a01b0383169082156108fc029083906000818181858888f193505050501580156102cc573d6000803e3d6000fd5b505050565b6002600054036102f457604051633ee5aeb560e01b815260040160405180910390fd5b6002600055565b60006020828403121561030d57600080fd5b5035919050565b6000806040838503121561032757600080fd5b82356001600160a01b038116811461033e57600080fd5b94602093909301359350505056fea264697066735822122058b2a01b50b0b7a7c885917e7898dd0baad523efaff4aa9e24bd3ebdb37b165a64736f6c63430008190033",
  "linkReferences": {},
  "deployedLinkReferences": {}
}