{
  "_format": "hh-sol-artifact-1",
  "contractName": "Registrar",
  "sourceName": "contracts/Registrar.sol",
  "abi": [
    {
      "inputs": [
        {
          "internalType": "contract MembershipPass1155",
          "name": "membershipContract",
          "type": "address"
        },
        {
          "internalType": "address",
          "name": "admin",
          "type": "address"
        }
      ],
      "stateMutability": "nonpayable",
      "type": "constructor"
    },
    {
      "inputs": [],
      "name": "AccessControlBadConfirmation",
      "type": "error"
    },
    {
      "inputs": [
        {
          "internalType": "address",
          "name": "account",
          "type": "address"
        },
        {
          "internalType": "bytes32",
          "name": "neededRole",
          "type": "bytes32"
        }
      ],
      "name": "AccessControlUnauthorizedAccount",
      "type": "error"
    },
    {
      "anonymous": false,
      "inputs": [
        {
          "indexed": true,
          "internalType": "uint256",
          "name": "courseId",
          "type": "uint256"
        },
        {
          "indexed": true,
          "internalType": "address",
          "name": "splitter",
          "type": "address"
        },
        {
          "indexed": false,
          "internalType": "uint256",
          "name": "priceWei",
          "type": "uint256"
        },
        {
          "indexed": true,
          "internalType": "address",
          "name": "creator",
          "type": "address"
        },
        {
          "indexed": false,
          "internalType": "uint64",
          "name": "duration",
          "type": "uint64"
        },
        {
          "indexed": false,
          "internalType": "uint64",
          "name": "transferCooldown",
          "type": "uint64"
        }
      ],
      "name": "CourseRegistered",
      "type": "event"
    },
    {
      "anonymous": false,
      "inputs": [
        {
          "indexed": true,
          "internalType": "bytes32",
          "name": "role",
          "type": "bytes32"
        },
        {
          "indexed": true,
          "internalType": "bytes32",
          "name": "previousAdminRole",
          "type": "bytes32"
        },
        {
          "indexed": true,
          "internalType": "bytes32",
          "name": "newAdminRole",
          "type": "bytes32"
        }
      ],
      "name": "RoleAdminChanged",
      "type": "event"
    },
    {
      "anonymous": false,
      "inputs": [
        {
          "indexed": true,
          "internalType": "bytes32",
          "name": "role",
          "type": "bytes32"
        },
        {
          "indexed": true,
          "internalType": "address",
          "name": "account",
          "type": "address"
        },
        {
          "indexed": true,
          "internalType": "address",
          "name": "sender",
          "type": "address"
        }
      ],
      "name": "RoleGranted",
      "type": "event"
    },
    {
      "anonymous": false,
      "inputs": [
        {
          "indexed": true,
          "internalType": "bytes32",
          "name": "role",
          "type": "bytes32"
        },
        {
          "indexed": true,
          "internalType": "address",
          "name": "account",
          "type": "address"
        },
        {
          "indexed": true,
          "internalType": "address",
          "name": "sender",
          "type": "address"
        }
      ],
      "name": "RoleRevoked",
      "type": "event"
    },
    {
      "inputs": [],
      "name": "ADMIN_ROLE",
      "outputs": [
        {
          "internalType": "bytes32",
          "name": "",
          "type": "bytes32"
        }
      ],
      "stateMutability": "view",
      "type": "function"
    },
    {
      "inputs": [],
      "name": "DEFAULT_ADMIN_ROLE",
      "outputs": [
        {
          "internalType": "bytes32",
          "name": "",
          "type": "bytes32"
        }
      ],
      "stateMutability": "view",
      "type": "function"
    },
    {
      "inputs": [
        {
          "internalType": "bytes32",
          "name": "role",
          "type": "bytes32"
        }
      ],
      "name": "getRoleAdmin",
      "outputs": [
        {
          "internalType": "bytes32",
          "name": "",
          "type": "bytes32"
        }
      ],
      "stateMutability": "view",
      "type": "function"
    },
    {
      "inputs": [
        {
          "internalType": "bytes32",
          "name": "role",
          "type": "bytes32"
        },
        {
          "internalType": "address",
          "name": "account",
          "type": "address"
        }
      ],
      "name": "grantRole",
      "outputs": [],
      "stateMutability": "nonpayable",
      "type": "function"
    },
    {
      "inputs": [
        {
          "internalType": "bytes32",
          "name": "role",
          "type": "bytes32"
        },
        {
          "internalType": "address",
          "name": "account",
          "type": "address"
        }
      ],
      "name": "hasRole",
      "outputs": [
        {
          "internalType": "bool",
          "name": "",
          "type": "bool"
        }
      ],
      "stateMutability": "view",
      "type": "function"
    },
    {
      "inputs": [],
      "name": "marketplace",
      "outputs": [
        {
          "internalType": "address",
          "name": "",
          "type": "address"
        }
      ],
      "stateMutability": "view",
      "type": "function"
    },
    {
      "inputs": [],
      "name": "membership",
      "outputs": [
        {
          "internalType": "contract MembershipPass1155",
          "name": "",
          "type": "address"
        }
      ],
      "stateMutability": "view",
      "type": "function"
    },
    {
      "inputs": [
        {
          "internalType": "uint256",
          "name": "courseId",
          "type": "uint256"
        },
        {
          "internalType": "uint256",
          "name": "priceWei",
          "type": "uint256"
        },
        {
          "internalType": "address[]",
          "name": "recipients",
          "type": "address[]"
        },
        {
          "internalType": "uint32[]",
          "name": "sharesBps",
          "type": "uint32[]"
        },
        {
          "internalType": "uint64",
          "name": "duration",
          "type": "uint64"
        },
        {
          "internalType": "uint64",
          "name": "transferCooldown",
          "type": "uint64"
        }
      ],
      "name": "registerCourse",
      "outputs": [
        {
          "internalType": "address",
          "name": "splitterAddress",
          "type": "address"
        }
      ],
      "stateMutability": "nonpayable",
      "type": "function"
    },
    {
      "inputs": [
        {
          "internalType": "bytes32",
          "name": "role",
          "type": "bytes32"
        },
        {
          "internalType": "address",
          "name": "callerConfirmation",
          "type": "address"
        }
      ],
      "name": "renounceRole",
      "outputs": [],
      "stateMutability": "nonpayable",
      "type": "function"
    },
    {
      "inputs": [
        {
          "internalType": "bytes32",
          "name": "role",
          "type": "bytes32"
        },
        {
          "internalType": "address",
          "name": "account",
          "type": "address"
        }
      ],
      "name": "revokeRole",
      "outputs": [],
      "stateMutability": "nonpayable",
      "type": "function"
    },
    {
      "inputs": [
        {
          "internalType": "address",
          "name": "marketplaceAddress",
          "type": "address"
        }
      ],
      "name": "setMarketplace",
      "outputs": [],
      "stateMutability": "nonpayable",
      "type": "function"
    },
    {
      "inputs": [
        {
          "internalType": "bytes4",
          "name": "interfaceId",
          "type": "bytes4"
        }
      ],
      "name": "supportsInterface",
      "outputs": [
        {
          "internalType": "bool",
          "name": "",
          "type": "bool"
        }
      ],
      "stateMutability": "view",
      "type": "function"
    }
  ],
  "bytecode": "0x60a060405234801561001057600080fd5b50604051611a3f380380611a3f83398101604081905261002f91610198565b6001600160a01b0382166100895760405162461bcd60e51b815260206004820152601760248201527f4d656d626572736869702061646472657373207a65726f000000000000000000604482015260640160405180910390fd5b6001600160a01b0382166080526100a16000826100d4565b506100cc7fa49807205ce4d355092ef5a8a18f56e8913cf4a201fbe287825b095693c21775826100d4565b5050506101d2565b6000828152602081815260408083206001600160a01b038516845290915281205460ff16610176576000838152602081815260408083206001600160a01b03861684529091529020805460ff1916600117905561012e3390565b6001600160a01b0316826001600160a01b0316847f2f8788117e7eff1d82e926ec794901d17c78024a50270940304540a733656f0d60405160405180910390a450600161017a565b5060005b92915050565b6001600160a01b038116811461019557600080fd5b50565b600080604083850312156101ab57600080fd5b82516101b681610180565b60208401519092506101c781610180565b809150509250929050565b6080516118446101fb60003960008181610194015281816104cc015261058e01526118446000f3fe608060405234801561001057600080fd5b50600436106100b45760003560e01c806391d148541161007157806391d1485414610174578063a217fddf14610187578063a2bf68b91461018f578063abc8c7af146101ce578063d547741f146101e1578063fc64b3f4146101f457600080fd5b806301ffc9a7146100b9578063248a9ca3146100e15780632f2ff15d1461011257806336568abe1461012757806373ad6c2d1461013a57806375b238fc1461014d575b600080fd5b6100cc6100c73660046107a8565b610207565b60405190151581526020015b60405180910390f35b6101046100ef3660046107d9565b60009081526020819052604090206001015490565b6040519081526020016100d8565b61012561012036600461080e565b61023e565b005b61012561013536600461080e565b610269565b61012561014836600461083a565b6102a1565b6101047fa49807205ce4d355092ef5a8a18f56e8913cf4a201fbe287825b095693c2177581565b6100cc61018236600461080e565b610349565b610104600081565b6101b67f000000000000000000000000000000000000000000000000000000000000000081565b6040516001600160a01b0390911681526020016100d8565b6001546101b6906001600160a01b031681565b6101256101ef36600461080e565b610372565b6101b66102023660046108b9565b610397565b60006001600160e01b03198216637965db0b60e01b148061023857506301ffc9a760e01b6001600160e01b03198316145b92915050565b60008281526020819052604090206001015461025981610654565b6102638383610661565b50505050565b6001600160a01b03811633146102925760405163334bd91960e11b815260040160405180910390fd5b61029c82826106f3565b505050565b7fa49807205ce4d355092ef5a8a18f56e8913cf4a201fbe287825b095693c217756102cb81610654565b6001600160a01b0382166103265760405162461bcd60e51b815260206004820152601860248201527f4d61726b6574706c6163652061646472657373207a65726f000000000000000060448201526064015b60405180910390fd5b50600180546001600160a01b0319166001600160a01b0392909216919091179055565b6000918252602082815260408084206001600160a01b0393909316845291905290205460ff1690565b60008281526020819052604090206001015461038d81610654565b61026383836106f3565b6001546000906001600160a01b03166103e85760405162461bcd60e51b815260206004820152601360248201527213585c9ad95d1c1b1858d9481b9bdd081cd95d606a1b604482015260640161031d565b8584146104295760405162461bcd60e51b815260206004820152600f60248201526e098cadccee8d040dad2e6dac2e8c6d608b1b604482015260640161031d565b6000805b85811015610476578686828181106104475761044761095d565b905060200201602081019061045c9190610987565b61046c9063ffffffff16836109a2565b915060010161042d565b5080612710146104c85760405162461bcd60e51b815260206004820152601860248201527f536861726573206d7573742073756d20746f2031303030300000000000000000604482015260640161031d565b60007f0000000000000000000000000000000000000000000000000000000000000000600160009054906101000a90046001600160a01b03168a8a8a8a6040516105119061079b565b610520969594939291906109c3565b604051809103906000f08015801561053c573d6000803e3d6000fd5b50604051639e9f0e9360e01b8152600481018d9052602481018c90526001600160a01b03808316604483015233606483015267ffffffffffffffff8089166084840152871660a48301529194508492507f000000000000000000000000000000000000000000000000000000000000000090911690639e9f0e939060c401600060405180830381600087803b1580156105d457600080fd5b505af11580156105e8573d6000803e3d6000fd5b5050604080518d815267ffffffffffffffff898116602083015288168183015290513393506001600160a01b03871692508e917fde46bb8bedc6ec491913f5522b49084191e1895d50eabc6eb07752ddd92a9b1d919081900360600190a4505098975050505050505050565b61065e813361075e565b50565b600061066d8383610349565b6106eb576000838152602081815260408083206001600160a01b03861684529091529020805460ff191660011790556106a33390565b6001600160a01b0316826001600160a01b0316847f2f8788117e7eff1d82e926ec794901d17c78024a50270940304540a733656f0d60405160405180910390a4506001610238565b506000610238565b60006106ff8383610349565b156106eb576000838152602081815260408083206001600160a01b0386168085529252808320805460ff1916905551339286917ff6391f5c32d9c69d2a47ea670b442974b53935d1edc7fd64eb21e047a839171b9190a4506001610238565b6107688282610349565b6107975760405163e2517d3f60e01b81526001600160a01b03821660048201526024810183905260440161031d565b5050565b610da580610a6a83390190565b6000602082840312156107ba57600080fd5b81356001600160e01b0319811681146107d257600080fd5b9392505050565b6000602082840312156107eb57600080fd5b5035919050565b80356001600160a01b038116811461080957600080fd5b919050565b6000806040838503121561082157600080fd5b82359150610831602084016107f2565b90509250929050565b60006020828403121561084c57600080fd5b6107d2826107f2565b60008083601f84011261086757600080fd5b50813567ffffffffffffffff81111561087f57600080fd5b6020830191508360208260051b850101111561089a57600080fd5b9250929050565b803567ffffffffffffffff8116811461080957600080fd5b60008060008060008060008060c0898b0312156108d557600080fd5b8835975060208901359650604089013567ffffffffffffffff808211156108fb57600080fd5b6109078c838d01610855565b909850965060608b013591508082111561092057600080fd5b5061092d8b828c01610855565b9095509350610940905060808a016108a1565b915061094e60a08a016108a1565b90509295985092959890939650565b634e487b7160e01b600052603260045260246000fd5b803563ffffffff8116811461080957600080fd5b60006020828403121561099957600080fd5b6107d282610973565b8082018082111561023857634e487b7160e01b600052601160045260246000fd5b6001600160a01b0387811682528681166020808401919091526080604084018190528301869052600091879160a08501845b89811015610a1a5783610a07866107f2565b16825293820193908201906001016109f5565b5085810360608701528681528101925086915060005b86811015610a595763ffffffff610a4684610973565b1684529281019291810191600101610a30565b50919a995050505050505050505056fe60c060405234801561001057600080fd5b50604051610da5380380610da583398101604081905261002f91610430565b60016000556001600160a01b03841661008f5760405162461bcd60e51b815260206004820152601760248201527f4d656d626572736869702061646472657373207a65726f00000000000000000060448201526064015b60405180910390fd5b6001600160a01b0383166100e55760405162461bcd60e51b815260206004820152601860248201527f4d61726b6574706c6163652061646472657373207a65726f00000000000000006044820152606401610086565b815115806100f557508051825114155b1561011357604051635d5eb16d60e11b815260040160405180910390fd5b6000805b83518110156101a15760006001600160a01b031684828151811061013d5761013d610514565b60200260200101516001600160a01b03160361016c576040516308c9926560e31b815260040160405180910390fd5b82818151811061017e5761017e610514565b602002602001015163ffffffff1682610197919061052a565b9150600101610117565b5061271081146101c457604051636edcc52360e01b815260040160405180910390fd5b6001600160a01b03808616608052841660a05282516101ea906003906020860190610209565b5081516101fe90600490602085019061026e565b505050505050610551565b82805482825590600052602060002090810192821561025e579160200282015b8281111561025e57825182546001600160a01b0319166001600160a01b03909116178255602090920191600190910190610229565b5061026a929150610314565b5090565b8280548282559060005260206000209060070160089004810192821561025e5791602002820160005b838211156102db57835183826101000a81548163ffffffff021916908363ffffffff1602179055509260200192600401602081600301049283019260010302610297565b801561030b5782816101000a81549063ffffffff02191690556004016020816003010492830192600103026102db565b505061026a9291505b5b8082111561026a5760008155600101610315565b80516001600160a01b038116811461034057600080fd5b919050565b634e487b7160e01b600052604160045260246000fd5b604051601f8201601f191681016001600160401b038111828210171561038357610383610345565b604052919050565b60006001600160401b038211156103a4576103a4610345565b5060051b60200190565b600082601f8301126103bf57600080fd5b815160206103d46103cf8361038b565b61035b565b8083825260208201915060208460051b8701019350868411156103f657600080fd5b602086015b8481101561042557805163ffffffff811681146104185760008081fd5b83529183019183016103fb565b509695505050505050565b6000806000806080858703121561044657600080fd5b61044f85610329565b9350602061045e818701610329565b60408701519094506001600160401b038082111561047b57600080fd5b818801915088601f83011261048f57600080fd5b815161049d6103cf8261038b565b81815260059190911b8301840190848101908b8311156104bc57600080fd5b938501935b828510156104e1576104d285610329565b825293850193908501906104c1565b60608b015190975094505050808311156104fa57600080fd5b5050610508878288016103ae565b91505092959194509250565b634e487b7160e01b600052603260045260246000fd5b8082018082111561054b57634e487b7160e01b600052601160045260246000fd5b92915050565b60805160a0516108216105846000396000818161025101526103360152600081816101ef015261030401526108216000f3fe6080604052600436106100ab5760003560e01c8063a2bf68b911610064578063a2bf68b9146101dd578063a3c2c46214610229578063abc8c7af1461023f578063d1bc76a114610273578063d3cd52bc14610293578063e33b7de3146102a957600080fd5b80630750986b14610102578063078d4c2b1461013c578063191655871461015157806322eabb8e146101715780635eebea20146101905780639852595c146101b057600080fd5b366100fd5760405162461bcd60e51b815260206004820152601b60248201527f446972656374207061796d656e7473206e6f7420616c6c6f776564000000000060448201526064015b60405180910390fd5b600080fd5b34801561010e57600080fd5b5061012261011d366004610711565b6102bf565b60405163ffffffff90911681526020015b60405180910390f35b61014f61014a36600461072a565b6102f9565b005b34801561015d57600080fd5b5061014f61016c36600461072a565b61041d565b34801561017d57600080fd5b506003545b604051908152602001610133565b34801561019c57600080fd5b506101826101ab36600461072a565b6105ab565b3480156101bc57600080fd5b506101826101cb36600461072a565b60056020526000908152604090205481565b3480156101e957600080fd5b506102117f000000000000000000000000000000000000000000000000000000000000000081565b6040516001600160a01b039091168152602001610133565b34801561023557600080fd5b5061018260015481565b34801561024b57600080fd5b506102117f000000000000000000000000000000000000000000000000000000000000000081565b34801561027f57600080fd5b5061021161028e366004610711565b610660565b34801561029f57600080fd5b5061012261271081565b3480156102b557600080fd5b5061018260025481565b600481815481106102cf57600080fd5b9060005260206000209060089182820401919006600402915054906101000a900463ffffffff1681565b336001600160a01b037f00000000000000000000000000000000000000000000000000000000000000001614806103585750336001600160a01b037f000000000000000000000000000000000000000000000000000000000000000016145b6103a45760405162461bcd60e51b815260206004820152601e60248201527f4f6e6c79206d656d62657273686970206f72206d61726b6574706c616365000060448201526064016100f4565b346000036103c5576040516311e51d5160e31b815260040160405180910390fd5b34600160008282546103d79190610770565b90915550506040513481526001600160a01b038216907f6ef95f06320e7a25a04a175ca677b7052bdd97131872c2192525a629f51be7709060200160405180910390a250565b61042561068a565b600019610431826106b4565b0361044f5760405163586d335760e01b815260040160405180910390fd5b600061045a826105ab565b9050600081116104a15760405162461bcd60e51b81526020600482015260126024820152714e6f7468696e6720746f2072656c6561736560701b60448201526064016100f4565b6001600160a01b038216600090815260056020526040812080548392906104c9908490610770565b9250508190555080600260008282546104e29190610770565b90915550506040516000906001600160a01b0384169083908381818185875af1925050503d8060008114610532576040519150601f19603f3d011682016040523d82523d6000602084013e610537565b606091505b5050905080610559576040516312171d8360e31b815260040160405180910390fd5b826001600160a01b03167fdf20fd1e76bc69d672e4814fafb2c449bba3a5369d8359adf9e05e6fde87b0568360405161059491815260200190565b60405180910390a250506105a86001600055565b50565b6000806105b7836106b4565b905060001981036105cb5750600092915050565b6000600482815481106105e0576105e0610789565b90600052602060002090600891828204019190066004029054906101000a900463ffffffff1663ffffffff169050600061271063ffffffff1682600154610627919061079f565b61063191906107b6565b6001600160a01b03861660009081526005602052604090205490915061065790826107d8565b95945050505050565b6003818154811061067057600080fd5b6000918252602090912001546001600160a01b0316905081565b6002600054036106ad57604051633ee5aeb560e01b815260040160405180910390fd5b6002600055565b6000805b60035481101561070757826001600160a01b0316600382815481106106df576106df610789565b6000918252602090912001546001600160a01b0316036106ff5792915050565b6001016106b8565b5060001992915050565b60006020828403121561072357600080fd5b5035919050565b60006020828403121561073c57600080fd5b81356001600160a01b038116811461075357600080fd5b9392505050565b634e487b7160e01b600052601160045260246000fd5b808201808211156107835761078361075a565b92915050565b634e487b7160e01b600052603260045260246000fd5b80820281158282048414176107835761078361075a565b6000826107d357634e487b7160e01b600052601260045260246000fd5b500490565b818103818111156107835761078361075a56fea264697066735822122026eb23ddbc2870f8c2d824b0294fddf3b4a1e15281c59070813ccef597a9248464736f6c63430008190033a2646970667358221220f4479e80c62880b1ba128b13765cba3f4d2b3cd867a7120ca65548ef52d8a91164736f6c63430008190033",
  "linkReferences": {},
  "deployedLinkReferences": {}
}