{
  "_format": "hh-sol-artifact-1",
  "contractName": "ZipherCampusBadge1155",
  "sourceName": "contracts/Badge1155.sol",
  "abi": [
    {
      "inputs": [
        {
          "internalType": "string",
          "name": "uri",
          "type": "string"
        },
        {
          "internalType": "address",
          "name": "admin",
          "type": "address"
        }
      ],
      "stateMutability": "nonpayable",
      "type": "constructor"
    },
    {
      "inputs": [],
      "name": "AccessControlBadConfirmation",
      "type": "error"
    },
    {
      "inputs": [
        {
          "internalType": "address",
          "name": "account",
          "type": "address"
        },
        {
          "internalType": "bytes32",
          "name": "neededRole",
          "type": "bytes32"
        }
      ],
      "name": "AccessControlUnauthorizedAccount",
      "type": "error"
    },
    {
      "inputs": [
        {
          "internalType": "address",
          "name": "sender",
          "type": "address"
        },
        {
          "internalType": "uint256",
          "name": "balance",
          "type": "uint256"
        },
        {
          "internalType": "uint256",
          "name": "needed",
          "type": "uint256"
        },
        {
          "internalType": "uint256",
          "name": "tokenId",
          "type": "uint256"
        }
      ],
      "name": "ERC1155InsufficientBalance",
      "type": "error"
    },
    {
      "inputs": [
        {
          "internalType": "address",
          "name": "approver",
          "type": "address"
        }
      ],
      "name": "ERC1155InvalidApprover",
      "type": "error"
    },
    {
      "inputs": [
        {
          "internalType": "uint256",
          "name": "idsLength",
          "type": "uint256"
        },
        {
          "internalType": "uint256",
          "name": "valuesLength",
          "type": "uint256"
        }
      ],
      "name": "ERC1155InvalidArrayLength",
      "type": "error"
    },
    {
      "inputs": [
        {
          "internalType": "address",
          "name": "operator",
          "type": "address"
        }
      ],
      "name": "ERC1155InvalidOperator",
      "type": "error"
    },
    {
      "inputs": [
        {
          "internalType": "address",
          "name": "receiver",
          "type": "address"
        }
      ],
      "name": "ERC1155InvalidReceiver",
      "type": "error"
    },
    {
      "inputs": [
        {
          "internalType": "address",
          "name": "sender",
          "type": "address"
        }
      ],
      "name": "ERC1155InvalidSender",
      "type": "error"
    },
    {
      "inputs": [
        {
          "internalType": "address",
          "name": "operator",
          "type": "address"
        },
        {
          "internalType": "address",
          "name": "owner",
          "type": "address"
        }
      ],
      "name": "ERC1155MissingApprovalForAll",
      "type": "error"
    },
    {
      "anonymous": false,
      "inputs": [
        {
          "indexed": true,
          "internalType": "address",
          "name": "account",
          "type": "address"
        },
        {
          "indexed": true,
          "internalType": "address",
          "name": "operator",
          "type": "address"
        },
        {
          "indexed": false,
          "internalType": "bool",
          "name": "approved",
          "type": "bool"
        }
      ],
      "name": "ApprovalForAll",
      "type": "event"
    },
    {
      "anonymous": false,
      "inputs": [
        {
          "indexed": true,
          "internalType": "address",
          "name": "to",
          "type": "address"
        },
        {
          "indexed": true,
          "internalType": "uint256",
          "name": "courseId",
          "type": "uint256"
        }
      ],
      "name": "BadgeMinted",
      "type": "event"
    },
    {
      "anonymous": false,
      "inputs": [
        {
          "indexed": true,
          "internalType": "bytes32",
          "name": "role",
          "type": "bytes32"
        },
        {
          "indexed": true,
          "internalType": "bytes32",
          "name": "previousAdminRole",
          "type": "bytes32"
        },
        {
          "indexed": true,
          "internalType": "bytes32",
          "name": "newAdminRole",
          "type": "bytes32"
        }
      ],
      "name": "RoleAdminChanged",
      "type": "event"
    },
    {
      "anonymous": false,
      "inputs": [
        {
          "indexed": true,
          "internalType": "bytes32",
          "name": "role",
          "type": "bytes32"
        },
        {
          "indexed": true,
          "internalType": "address",
          "name": "account",
          "type": "address"
        },
        {
          "indexed": true,
          "internalType": "address",
          "name": "sender",
          "type": "address"
        }
      ],
      "name": "RoleGranted",
      "type": "event"
    },
    {
      "anonymous": false,
      "inputs": [
        {
          "indexed": true,
          "internalType": "bytes32",
          "name": "role",
          "type": "bytes32"
        },
        {
          "indexed": true,
          "internalType": "address",
          "name": "account",
          "type": "address"
        },
        {
          "indexed": true,
          "internalType": "address",
          "name": "sender",
          "type": "address"
        }
      ],
      "name": "RoleRevoked",
      "type": "event"
    },
    {
      "anonymous": false,
      "inputs": [
        {
          "indexed": true,
          "internalType": "address",
          "name": "operator",
          "type": "address"
        },
        {
          "indexed": true,
          "internalType": "address",
          "name": "from",
          "type": "address"
        },
        {
          "indexed": true,
          "internalType": "address",
          "name": "to",
          "type": "address"
        },
        {
          "indexed": false,
          "internalType": "uint256[]",
          "name": "ids",
          "type": "uint256[]"
        },
        {
          "indexed": false,
          "internalType": "uint256[]",
          "name": "values",
          "type": "uint256[]"
        }
      ],
      "name": "TransferBatch",
      "type": "event"
    },
    {
      "anonymous": false,
      "inputs": [
        {
          "indexed": true,
          "internalType": "address",
          "name": "operator",
          "type": "address"
        },
        {
          "indexed": true,
          "internalType": "address",
          "name": "from",
          "type": "address"
        },
        {
          "indexed": true,
          "internalType": "address",
          "name": "to",
          "type": "address"
        },
        {
          "indexed": false,
          "internalType": "uint256",
          "name": "id",
          "type": "uint256"
        },
        {
          "indexed": false,
          "internalType": "uint256",
          "name": "value",
          "type": "uint256"
        }
      ],
      "name": "TransferSingle",
      "type": "event"
    },
    {
      "anonymous": false,
      "inputs": [
        {
          "indexed": false,
          "internalType": "string",
          "name": "value",
          "type": "string"
        },
        {
          "indexed": true,
          "internalType": "uint256",
          "name": "id",
          "type": "uint256"
        }
      ],
      "name": "URI",
      "type": "event"
    },
    {
      "inputs": [],
      "name": "DEFAULT_ADMIN_ROLE",
      "outputs": [
        {
          "internalType": "bytes32",
          "name": "",
          "type": "bytes32"
        }
      ],
      "stateMutability": "view",
      "type": "function"
    },
    {
      "inputs": [],
      "name": "MINTER_ROLE",
      "outputs": [
        {
          "internalType": "bytes32",
          "name": "",
          "type": "bytes32"
        }
      ],
      "stateMutability": "view",
      "type": "function"
    },
    {
      "inputs": [
        {
          "internalType": "address",
          "name": "account",
          "type": "address"
        },
        {
          "internalType": "uint256",
          "name": "id",
          "type": "uint256"
        }
      ],
      "name": "balanceOf",
      "outputs": [
        {
          "internalType": "uint256",
          "name": "",
          "type": "uint256"
        }
      ],
      "stateMutability": "view",
      "type": "function"
    },
    {
      "inputs": [
        {
          "internalType": "address[]",
          "name": "accounts",
          "type": "address[]"
        },
        {
          "internalType": "uint256[]",
          "name": "ids",
          "type": "uint256[]"
        }
      ],
      "name": "balanceOfBatch",
      "outputs": [
        {
          "internalType": "uint256[]",
          "name": "",
          "type": "uint256[]"
        }
      ],
      "stateMutability": "view",
      "type": "function"
    },
    {
      "inputs": [
        {
          "internalType": "bytes32",
          "name": "role",
          "type": "bytes32"
        }
      ],
      "name": "getRoleAdmin",
      "outputs": [
        {
          "internalType": "bytes32",
          "name": "",
          "type": "bytes32"
        }
      ],
      "stateMutability": "view",
      "type": "function"
    },
    {
      "inputs": [
        {
          "internalType": "bytes32",
          "name": "role",
          "type": "bytes32"
        },
        {
          "internalType": "address",
          "name": "account",
          "type": "address"
        }
      ],
      "name": "grantRole",
      "outputs": [],
      "stateMutability": "nonpayable",
      "type": "function"
    },
    {
      "inputs": [
        {
          "internalType": "bytes32",
          "name": "role",
          "type": "bytes32"
        },
        {
          "internalType": "address",
          "name": "account",
          "type": "address"
        }
      ],
      "name": "hasRole",
      "outputs": [
        {
          "internalType": "bool",
          "name": "",
          "type": "bool"
        }
      ],
      "stateMutability": "view",
      "type": "function"
    },
    {
      "inputs": [
        {
          "internalType": "address",
          "name": "account",
          "type": "address"
        },
        {
          "internalType": "address",
          "name": "operator",
          "type": "address"
        }
      ],
      "name": "isApprovedForAll",
      "outputs": [
        {
          "internalType": "bool",
          "name": "",
          "type": "bool"
        }
      ],
      "stateMutability": "view",
      "type": "function"
    },
    {
      "inputs": [
        {
          "internalType": "address[]",
          "name": "recipients",
          "type": "address[]"
        },
        {
          "internalType": "uint256",
          "name": "courseId",
          "type": "uint256"
        }
      ],
      "name": "mintBatch",
      "outputs": [],
      "stateMutability": "nonpayable",
      "type": "function"
    },
    {
      "inputs": [
        {
          "internalType": "address",
          "name": "to",
          "type": "address"
        },
        {
          "internalType": "uint256",
          "name": "courseId",
          "type": "uint256"
        }
      ],
      "name": "mintCompletion",
      "outputs": [],
      "stateMutability": "nonpayable",
      "type": "function"
    },
    {
      "inputs": [
        {
          "internalType": "bytes32",
          "name": "role",
          "type": "bytes32"
        },
        {
          "internalType": "address",
          "name": "callerConfirmation",
          "type": "address"
        }
      ],
      "name": "renounceRole",
      "outputs": [],
      "stateMutability": "nonpayable",
      "type": "function"
    },
    {
      "inputs": [
        {
          "internalType": "bytes32",
          "name": "role",
          "type": "bytes32"
        },
        {
          "internalType": "address",
          "name": "account",
          "type": "address"
        }
      ],
      "name": "revokeRole",
      "outputs": [],
      "stateMutability": "nonpayable",
      "type": "function"
    },
    {
      "inputs": [
        {
          "internalType": "address",
          "name": "",
          "type": "address"
        },
        {
          "internalType": "address",
          "name": "",
          "type": "address"
        },
        {
          "internalType": "uint256[]",
          "name": "",
          "type": "uint256[]"
        },
        {
          "internalType": "uint256[]",
          "name": "",
          "type": "uint256[]"
        },
        {
          "internalType": "bytes",
          "name": "",
          "type": "bytes"
        }
      ],
      "name": "safeBatchTransferFrom",
      "outputs": [],
      "stateMutability": "pure",
      "type": "function"
    },
    {
      "inputs": [
        {
          "internalType": "address",
          "name": "",
          "type": "address"
        },
        {
          "internalType": "address",
          "name": "",
          "type": "address"
        },
        {
          "internalType": "uint256",
          "name": "",
          "type": "uint256"
        },
        {
          "internalType": "uint256",
          "name": "",
          "type": "uint256"
        },
        {
          "internalType": "bytes",
          "name": "",
          "type": "bytes"
        }
      ],
      "name": "safeTransferFrom",
      "outputs": [],
      "stateMutability": "pure",
      "type": "function"
    },
    {
      "inputs": [
        {
          "internalType": "address",
          "name": "",
          "type": "address"
        },
        {
          "internalType": "bool",
          "name": "",
          "type": "bool"
        }
      ],
      "name": "setApprovalForAll",
      "outputs": [],
      "stateMutability": "pure",
      "type": "function"
    },
    {
      "inputs": [
        {
          "internalType": "string",
          "name": "newURI",
          "type": "string"
        }
      ],
      "name": "setURI",
      "outputs": [],
      "stateMutability": "nonpayable",
      "type": "function"
    },
    {
      "inputs": [
        {
          "internalType": "bytes4",
          "name": "interfaceId",
          "type": "bytes4"
        }
      ],
      "name": "supportsInterface",
      "outputs": [
        {
          "internalType": "bool",
          "name": "",
          "type": "bool"
        }
      ],
      "stateMutability": "view",
      "type": "function"
    },
    {
      "inputs": [
        {
          "internalType": "uint256",
          "name": "",
          "type": "uint256"
        }
      ],
      "name": "uri",
      "outputs": [
        {
          "internalType": "string",
          "name": "",
          "type": "string"
        }
      ],
      "stateMutability": "view",
      "type": "function"
    }
  ],
  "bytecode": "0x608060405234801561001057600080fd5b50604051611a76380380611a7683398101604081905261002f9161016a565b8161003981610078565b50610045600082610088565b506100707f9f2df0fed2c77648de5860a4cc508cd0818c85b8b8a1ab4ceeef8d981c8956a682610088565b50505061038e565b600261008482826102cf565b5050565b60008281526003602090815260408083206001600160a01b038516845290915281205460ff1661012e5760008381526003602090815260408083206001600160a01b03861684529091529020805460ff191660011790556100e63390565b6001600160a01b0316826001600160a01b0316847f2f8788117e7eff1d82e926ec794901d17c78024a50270940304540a733656f0d60405160405180910390a4506001610132565b5060005b92915050565b634e487b7160e01b600052604160045260246000fd5b80516001600160a01b038116811461016557600080fd5b919050565b6000806040838503121561017d57600080fd5b82516001600160401b038082111561019457600080fd5b818501915085601f8301126101a857600080fd5b8151818111156101ba576101ba610138565b604051601f8201601f19908116603f011681019083821181831017156101e2576101e2610138565b816040528281526020935088848487010111156101fe57600080fd5b600091505b828210156102205784820184015181830185015290830190610203565b600084848301015280965050505061023981860161014e565b925050509250929050565b600181811c9082168061025857607f821691505b60208210810361027857634e487b7160e01b600052602260045260246000fd5b50919050565b601f8211156102ca576000816000526020600020601f850160051c810160208610156102a75750805b601f850160051c820191505b818110156102c6578281556001016102b3565b5050505b505050565b81516001600160401b038111156102e8576102e8610138565b6102fc816102f68454610244565b8461027e565b602080601f83116001811461033157600084156103195750858301515b600019600386901b1c1916600185901b1785556102c6565b600085815260208120601f198616915b8281101561036057888601518255948401946001909101908401610341565b508582101561037e5787850151600019600388901b60f8161c191681555b5050505050600190811b01905550565b6116d98061039d6000396000f3fe608060405234801561001057600080fd5b50600436106101155760003560e01c806391d14854116100a2578063b6afc4dc11610071578063b6afc4dc14610255578063d539139314610268578063d547741f1461028f578063e985e9c5146102a2578063f242432a146102de57600080fd5b806391d14854146102145780639d866a7b14610227578063a217fddf1461023a578063a22cb4651461024257600080fd5b8063248a9ca3116100e9578063248a9ca3146101985780632eb2c2d6146101bb5780632f2ff15d146101ce57806336568abe146101e15780634e1273f4146101f457600080fd5b8062fdd58e1461011a57806301ffc9a71461014057806302fe5305146101635780630e89341c14610178575b600080fd5b61012d610128366004610e7d565b6102ec565b6040519081526020015b60405180910390f35b61015361014e366004610ebd565b610314565b6040519015158152602001610137565b610176610171366004610f80565b61031f565b005b61018b610186366004610fd1565b610337565b6040516101379190611030565b61012d6101a6366004610fd1565b60009081526003602052604090206001015490565b6101766101c93660046110f6565b6103cb565b6101766101dc3660046111a0565b610411565b6101766101ef3660046111a0565b61043c565b6102076102023660046111cc565b610474565b60405161013791906112c8565b6101536102223660046111a0565b610541565b610176610235366004610e7d565b61056c565b61012d600081565b6101766102503660046112db565b6105ed565b610176610263366004611317565b610635565b61012d7f9f2df0fed2c77648de5860a4cc508cd0818c85b8b8a1ab4ceeef8d981c8956a681565b61017661029d3660046111a0565b61071a565b6101536102b0366004611392565b6001600160a01b03918216600090815260016020908152604080832093909416825291909152205460ff1690565b6101766101c93660046113bc565b6000818152602081815260408083206001600160a01b03861684529091529020545b92915050565b600061030e8261073f565b600061032a81610764565b61033382610771565b5050565b60606002805461034690611421565b80601f016020809104026020016040519081016040528092919081815260200182805461037290611421565b80156103bf5780601f10610394576101008083540402835291602001916103bf565b820191906000526020600020905b8154815290600101906020018083116103a257829003601f168201915b50505050509050919050565b60405162461bcd60e51b81526020600482015260166024820152754261646765206e6f6e2d7472616e7366657261626c6560501b60448201526064015b60405180910390fd5b60008281526003602052604090206001015461042c81610764565b610436838361077d565b50505050565b6001600160a01b03811633146104655760405163334bd91960e11b815260040160405180910390fd5b61046f8282610811565b505050565b606081518351146104a55781518351604051635b05999160e01b815260048101929092526024820152604401610408565b6000835167ffffffffffffffff8111156104c1576104c1610ee1565b6040519080825280602002602001820160405280156104ea578160200160208202803683370190505b50905060005b845181101561053957602080820286010151610514906020808402870101516102ec565b8282815181106105265761052661145b565b60209081029190910101526001016104f0565b509392505050565b60009182526003602090815260408084206001600160a01b0393909316845291905290205460ff1690565b7f9f2df0fed2c77648de5860a4cc508cd0818c85b8b8a1ab4ceeef8d981c8956a661059681610764565b6105b2838360016040518060200160405280600081525061087e565b60405182906001600160a01b038516907fc5e5b314108c1f776c2302351b8278910ddb812b122b2717b1bc973146145e9a90600090a3505050565b60405162461bcd60e51b815260206004820152601860248201527f426164676520617070726f76616c732064697361626c656400000000000000006044820152606401610408565b7f9f2df0fed2c77648de5860a4cc508cd0818c85b8b8a1ab4ceeef8d981c8956a661065f81610764565b8260005b81811015610712576106ad8686838181106106805761068061145b565b90506020020160208101906106959190611471565b8560016040518060200160405280600081525061087e565b838686838181106106c0576106c061145b565b90506020020160208101906106d59190611471565b6001600160a01b03167fc5e5b314108c1f776c2302351b8278910ddb812b122b2717b1bc973146145e9a60405160405180910390a3600101610663565b505050505050565b60008281526003602052604090206001015461073581610764565b6104368383610811565b60006001600160e01b03198216637965db0b60e01b148061030e575061030e826108db565b61076e813361092b565b50565b600261033382826114d4565b60006107898383610541565b6108095760008381526003602090815260408083206001600160a01b03861684529091529020805460ff191660011790556107c13390565b6001600160a01b0316826001600160a01b0316847f2f8788117e7eff1d82e926ec794901d17c78024a50270940304540a733656f0d60405160405180910390a450600161030e565b50600061030e565b600061081d8383610541565b156108095760008381526003602090815260408083206001600160a01b0386168085529252808320805460ff1916905551339286917ff6391f5c32d9c69d2a47ea670b442974b53935d1edc7fd64eb21e047a839171b9190a450600161030e565b6001600160a01b0384166108a857604051632bfa23e760e11b815260006004820152602401610408565b60408051600180825260208201869052818301908152606082018590526080820190925290610712600087848487610964565b60006001600160e01b03198216636cdb3d1360e11b148061090c57506001600160e01b031982166303a24d0760e21b145b8061030e57506301ffc9a760e01b6001600160e01b031983161461030e565b6109358282610541565b6103335760405163e2517d3f60e01b81526001600160a01b038216600482015260248101839052604401610408565b610970858585856109be565b6001600160a01b038416156109b757825133906001036109a957602084810151908401516109a2838989858589610a37565b5050610712565b610712818787878787610b64565b5050505050565b6001600160a01b038416158015906109de57506001600160a01b03831615155b15610a2b5760405162461bcd60e51b815260206004820152601960248201527f4261646765206973206e6f6e2d7472616e7366657261626c65000000000000006044820152606401610408565b61043684848484610c4d565b6001600160a01b0384163b156107125760405163f23a6e6160e01b81526001600160a01b0385169063f23a6e6190610a7b9089908990889088908890600401611594565b6020604051808303816000875af1925050508015610ab6575060408051601f3d908101601f19168201909252610ab3918101906115d9565b60015b610b1f573d808015610ae4576040519150601f19603f3d011682016040523d82523d6000602084013e610ae9565b606091505b508051600003610b1757604051632bfa23e760e11b81526001600160a01b0386166004820152602401610408565b805160208201fd5b6001600160e01b0319811663f23a6e6160e01b14610b5b57604051632bfa23e760e11b81526001600160a01b0386166004820152602401610408565b50505050505050565b6001600160a01b0384163b156107125760405163bc197c8160e01b81526001600160a01b0385169063bc197c8190610ba890899089908890889088906004016115f6565b6020604051808303816000875af1925050508015610be3575060408051601f3d908101601f19168201909252610be0918101906115d9565b60015b610c11573d808015610ae4576040519150601f19603f3d011682016040523d82523d6000602084013e610ae9565b6001600160e01b0319811663bc197c8160e01b14610b5b57604051632bfa23e760e11b81526001600160a01b0386166004820152602401610408565b8051825114610c7c5781518151604051635b05999160e01b815260048101929092526024820152604401610408565b3360005b8351811015610d82576020818102858101820151908501909101516001600160a01b03881615610d33576000828152602081815260408083206001600160a01b038c16845290915290205481811015610d0c576040516303dee4c560e01b81526001600160a01b038a166004820152602481018290526044810183905260648101849052608401610408565b6000838152602081815260408083206001600160a01b038d16845290915290209082900390555b6001600160a01b03871615610d78576000828152602081815260408083206001600160a01b038b16845290915281208054839290610d72908490611654565b90915550505b5050600101610c80565b508251600103610e035760208301516000906020840151909150856001600160a01b0316876001600160a01b0316846001600160a01b03167fc3d58168c5ae7397731d063d5bbf3d657854427343f4c083240f7aacaa2d0f628585604051610df4929190918252602082015260400190565b60405180910390a450506109b7565b836001600160a01b0316856001600160a01b0316826001600160a01b03167f4a39dc06d4c0dbc64b70af90fd698a233a518aa5d07e595d983b8c0526c8f7fb8686604051610e52929190611675565b60405180910390a45050505050565b80356001600160a01b0381168114610e7857600080fd5b919050565b60008060408385031215610e9057600080fd5b610e9983610e61565b946020939093013593505050565b6001600160e01b03198116811461076e57600080fd5b600060208284031215610ecf57600080fd5b8135610eda81610ea7565b9392505050565b634e487b7160e01b600052604160045260246000fd5b604051601f8201601f1916810167ffffffffffffffff81118282101715610f2057610f20610ee1565b604052919050565b600067ffffffffffffffff831115610f4257610f42610ee1565b610f55601f8401601f1916602001610ef7565b9050828152838383011115610f6957600080fd5b828260208301376000602084830101529392505050565b600060208284031215610f9257600080fd5b813567ffffffffffffffff811115610fa957600080fd5b8201601f81018413610fba57600080fd5b610fc984823560208401610f28565b949350505050565b600060208284031215610fe357600080fd5b5035919050565b6000815180845260005b8181101561101057602081850181015186830182015201610ff4565b506000602082860101526020601f19601f83011685010191505092915050565b602081526000610eda6020830184610fea565b600067ffffffffffffffff82111561105d5761105d610ee1565b5060051b60200190565b600082601f83011261107857600080fd5b8135602061108d61108883611043565b610ef7565b8083825260208201915060208460051b8701019350868411156110af57600080fd5b602086015b848110156110cb57803583529183019183016110b4565b509695505050505050565b600082601f8301126110e757600080fd5b610eda83833560208501610f28565b600080600080600060a0868803121561110e57600080fd5b61111786610e61565b945061112560208701610e61565b9350604086013567ffffffffffffffff8082111561114257600080fd5b61114e89838a01611067565b9450606088013591508082111561116457600080fd5b61117089838a01611067565b9350608088013591508082111561118657600080fd5b50611193888289016110d6565b9150509295509295909350565b600080604083850312156111b357600080fd5b823591506111c360208401610e61565b90509250929050565b600080604083850312156111df57600080fd5b823567ffffffffffffffff808211156111f757600080fd5b818501915085601f83011261120b57600080fd5b8135602061121b61108883611043565b82815260059290921b8401810191818101908984111561123a57600080fd5b948201945b8386101561125f5761125086610e61565b8252948201949082019061123f565b9650508601359250508082111561127557600080fd5b5061128285828601611067565b9150509250929050565b60008151808452602080850194506020840160005b838110156112bd578151875295820195908201906001016112a1565b509495945050505050565b602081526000610eda602083018461128c565b600080604083850312156112ee57600080fd5b6112f783610e61565b91506020830135801515811461130c57600080fd5b809150509250929050565b60008060006040848603121561132c57600080fd5b833567ffffffffffffffff8082111561134457600080fd5b818601915086601f83011261135857600080fd5b81358181111561136757600080fd5b8760208260051b850101111561137c57600080fd5b6020928301989097509590910135949350505050565b600080604083850312156113a557600080fd5b6113ae83610e61565b91506111c360208401610e61565b600080600080600060a086880312156113d457600080fd5b6113dd86610e61565b94506113eb60208701610e61565b93506040860135925060608601359150608086013567ffffffffffffffff81111561141557600080fd5b611193888289016110d6565b600181811c9082168061143557607f821691505b60208210810361145557634e487b7160e01b600052602260045260246000fd5b50919050565b634e487b7160e01b600052603260045260246000fd5b60006020828403121561148357600080fd5b610eda82610e61565b601f82111561046f576000816000526020600020601f850160051c810160208610156114b55750805b601f850160051c820191505b81811015610712578281556001016114c1565b815167ffffffffffffffff8111156114ee576114ee610ee1565b611502816114fc8454611421565b8461148c565b602080601f831160018114611537576000841561151f5750858301515b600019600386901b1c1916600185901b178555610712565b600085815260208120601f198616915b8281101561156657888601518255948401946001909101908401611547565b50858210156115845787850151600019600388901b60f8161c191681555b5050505050600190811b01905550565b6001600160a01b03868116825285166020820152604081018490526060810183905260a0608082018190526000906115ce90830184610fea565b979650505050505050565b6000602082840312156115eb57600080fd5b8151610eda81610ea7565b6001600160a01b0386811682528516602082015260a0604082018190526000906116229083018661128c565b8281036060840152611634818661128c565b905082810360808401526116488185610fea565b98975050505050505050565b8082018082111561030e57634e487b7160e01b600052601160045260246000fd5b604081526000611688604083018561128c565b828103602084015261169a818561128c565b9594505050505056fea2646970667358221220cf1d21e1aebe2dbc6cb9f3bcdf21d121907767801fb35a3fa97e91741f0a9ae464736f6c63430008190033",
  "linkReferences": {},
  "deployedLinkReferences": {}
}