{
  "_format": "hh-sol-artifact-1",
  "contractName": "FHECampusReputation",
  "sourceName": "contracts/FHE/FHECampusReputation.sol",
  "abi": [
    {
      "inputs": [
        {
          "internalType": "address",
          "name": "acl",
          "type": "address"
        },
        {
          "internalType": "address",
          "name": "coprocessor",
          "type": "address"
        },
        {
          "internalType": "address",
          "name": "decryptionOracle",
          "type": "address"
        },
        {
          "internalType": "address",
          "name": "kmsVerifier",
          "type": "address"
        }
      ],
      "stateMutability": "nonpayable",
      "type": "constructor"
    },
    {
      "anonymous": false,
      "inputs": [
        {
          "indexed": true,
          "internalType": "address",
          "name": "user",
          "type": "address"
        }
      ],
      "name": "ReputationUpdated",
      "type": "event"
    },
    {
      "inputs": [
        {
          "internalType": "externalEuint32",
          "name": "encryptedValue",
          "type": "bytes32"
        },
        {
          "internalType": "bytes",
          "name": "inputProof",
          "type": "bytes"
        }
      ],
      "name": "addXP",
      "outputs": [],
      "stateMutability": "nonpayable",
      "type": "function"
    },
    {
      "inputs": [],
      "name": "getEncryptedLevel",
      "outputs": [
        {
          "internalType": "euint32",
          "name": "",
          "type": "bytes32"
        }
      ],
      "stateMutability": "view",
      "type": "function"
    },
    {
      "inputs": [],
      "name": "getEncryptedXP",
      "outputs": [
        {
          "internalType": "euint32",
          "name": "",
          "type": "bytes32"
        }
      ],
      "stateMutability": "view",
      "type": "function"
    }
  ],
  "bytecode": "0x608060405234801561001057600080fd5b5060405161098238038061098283398101604081905261002f9161013c565b604080516080810182526001600160a01b03958616808252948616602082018190529386169181018290529190941660609091018190527f9e7b61f58c47dc699ac88507c4f5bb9f121c03808c5676a8078fe583e464970080546001600160a01b031990811690941790557f9e7b61f58c47dc699ac88507c4f5bb9f121c03808c5676a8078fe583e4649701805484169092179091557f9e7b61f58c47dc699ac88507c4f5bb9f121c03808c5676a8078fe583e4649702805483169093179092557f9e7b61f58c47dc699ac88507c4f5bb9f121c03808c5676a8078fe583e464970380549091169091179055610190565b80516001600160a01b038116811461013757600080fd5b919050565b6000806000806080858703121561015257600080fd5b61015b85610120565b935061016960208601610120565b925061017760408601610120565b915061018560608601610120565b905092959194509250565b6107e38061019f6000396000f3fe608060405234801561001057600080fd5b50600436106100415760003560e01c806378a48ea21461004657806391fda27b14610069578063e48ded441461007e575b600080fd5b336000908152602081905260409020545b60405190815260200160405180910390f35b61007c610077366004610657565b610096565b005b33600090815260208190526040902060010154610057565b60006100d88484848080601f01602080910402602001604051908101604052809392919081815260200183838082843760009201919091525061020892505050565b33600090815260208190526040902054909150610129576100f9600061021d565b336000908152602081905260408120919091556101159061021d565b336000908152602081905260409020600101555b336000908152602081905260409020546101439082610236565b336000908152602081905260409020819055610160906064610268565b336000818152602081905260409020600181019290925590546101829161028c565b503360008181526020819052604090206001015461019f9161028c565b50336000908152602081905260409020546101b99061029f565b50336000908152602081905260409020600101546101d69061029f565b5060405133907fe127cf589a3879da0156d4a24f43b44f65cfa3570de594806b0bfa2fcf06884f90600090a250505050565b6000610216838360046102af565b9392505050565b60006102308263ffffffff1660046103c6565b92915050565b60008261024a57610247600061021d565b92505b8161025c57610259600061021d565b91505b61021683836000610475565b60008261027c57610279600061021d565b92505b6102168363ffffffff8416610531565b600061029883836105da565b5090919050565b60006102ab82306105da565b5090565b7f9e7b61f58c47dc699ac88507c4f5bb9f121c03808c5676a8078fe583e46497015460405163196d0b9b60e01b815260009160008051602061078e833981519152916001600160a01b039091169063196d0b9b906103179088903390899089906004016106f5565b6020604051808303816000875af1158015610336573d6000803e3d6000fd5b505050506040513d601f19601f8201168201806040525081019061035a9190610760565b8154604051630f8e573b60e21b8152600481018390523360248201529193506001600160a01b031690633e395cec90604401600060405180830381600087803b1580156103a657600080fd5b505af11580156103ba573d6000803e3d6000fd5b50505050509392505050565b7f9e7b61f58c47dc699ac88507c4f5bb9f121c03808c5676a8078fe583e464970154604051639cd07acb60e01b815260009160008051602061078e833981519152916001600160a01b0390911690639cd07acb9061042a9087908790600401610779565b6020604051808303816000875af1158015610449573d6000803e3d6000fd5b505050506040513d601f19601f8201168201806040525081019061046d9190610760565b949350505050565b60008082156104895750600160f81b61048d565b5060005b600060008051602061078e833981519152600181015460405163022f65e760e31b815260048101899052602481018890526001600160f81b0319851660448201529192506001600160a01b03169063117b2f38906064016020604051808303816000875af1158015610503573d6000803e3d6000fd5b505050506040513d601f19601f820116820180604052508101906105279190610760565b9695505050505050565b6000600160f81b8160008051602061078e8339815191526001810154604051635a53accb60e01b815260048101889052602481018790526001600160f81b0319851660448201529192506001600160a01b031690635a53accb906064016020604051808303816000875af11580156105ad573d6000803e3d6000fd5b505050506040513d601f19601f820116820180604052508101906105d19190610760565b95945050505050565b600060008051602061078e8339815191528054604051635ca4b5b160e11b8152600481018690526001600160a01b03858116602483015292935091169063b9496b6290604401600060405180830381600087803b15801561063a57600080fd5b505af115801561064e573d6000803e3d6000fd5b50505050505050565b60008060006040848603121561066c57600080fd5b83359250602084013567ffffffffffffffff8082111561068b57600080fd5b818601915086601f83011261069f57600080fd5b8135818111156106ae57600080fd5b8760208285010111156106c057600080fd5b6020830194508093505050509250925092565b605481106106f157634e487b7160e01b600052602160045260246000fd5b9052565b8481526000602060018060a01b038616602084015260806040840152845180608085015260005b818110156107385786810183015185820160a00152820161071c565b50600060a0828601015260a0601f19601f830116850101925050506105d160608301846106d3565b60006020828403121561077257600080fd5b5051919050565b8281526040810161021660208301846106d356fe9e7b61f58c47dc699ac88507c4f5bb9f121c03808c5676a8078fe583e4649700a2646970667358221220f06c58247f4693536ca7dba5fa940ebb812c6ad6049aea0f94d77848fc31a6bb64736f6c63430008190033",
  "linkReferences": {},
  "deployedLinkReferences": {}
}