{
  "_format": "hh-sol-artifact-1",
  "contractName": "MembershipPass1155",
  "sourceName": "contracts/MembershipPass1155.sol",
  "abi": [
    {
      "inputs": [
        {
          "internalType": "string",
          "name": "uri_",
          "type": "string"
        }
      ],
      "stateMutability": "nonpayable",
      "type": "constructor"
    },
    {
      "inputs": [
        {
          "internalType": "address",
          "name": "sender",
          "type": "address"
        },
        {
          "internalType": "uint256",
          "name": "balance",
          "type": "uint256"
        },
        {
          "internalType": "uint256",
          "name": "needed",
          "type": "uint256"
        },
        {
          "internalType": "uint256",
          "name": "tokenId",
          "type": "uint256"
        }
      ],
      "name": "ERC1155InsufficientBalance",
      "type": "error"
    },
    {
      "inputs": [
        {
          "internalType": "address",
          "name": "approver",
          "type": "address"
        }
      ],
      "name": "ERC1155InvalidApprover",
      "type": "error"
    },
    {
      "inputs": [
        {
          "internalType": "uint256",
          "name": "idsLength",
          "type": "uint256"
        },
        {
          "internalType": "uint256",
          "name": "valuesLength",
          "type": "uint256"
        }
      ],
      "name": "ERC1155InvalidArrayLength",
      "type": "error"
    },
    {
      "inputs": [
        {
          "internalType": "address",
          "name": "operator",
          "type": "address"
        }
      ],
      "name": "ERC1155InvalidOperator",
      "type": "error"
    },
    {
      "inputs": [
        {
          "internalType": "address",
          "name": "receiver",
          "type": "address"
        }
      ],
      "name": "ERC1155InvalidReceiver",
      "type": "error"
    },
    {
      "inputs": [
        {
          "internalType": "address",
          "name": "sender",
          "type": "address"
        }
      ],
      "name": "ERC1155InvalidSender",
      "type": "error"
    },
    {
      "inputs": [
        {
          "internalType": "address",
          "name": "operator",
          "type": "address"
        },
        {
          "internalType": "address",
          "name": "owner",
          "type": "address"
        }
      ],
      "name": "ERC1155MissingApprovalForAll",
      "type": "error"
    },
    {
      "inputs": [
        {
          "internalType": "address",
          "name": "owner",
          "type": "address"
        }
      ],
      "name": "OwnableInvalidOwner",
      "type": "error"
    },
    {
      "inputs": [
        {
          "internalType": "address",
          "name": "account",
          "type": "address"
        }
      ],
      "name": "OwnableUnauthorizedAccount",
      "type": "error"
    },
    {
      "anonymous": false,
      "inputs": [
        {
          "indexed": true,
          "internalType": "address",
          "name": "account",
          "type": "address"
        },
        {
          "indexed": true,
          "internalType": "address",
          "name": "operator",
          "type": "address"
        },
        {
          "indexed": false,
          "internalType": "bool",
          "name": "approved",
          "type": "bool"
        }
      ],
      "name": "ApprovalForAll",
      "type": "event"
    },
    {
      "anonymous": false,
      "inputs": [
        {
          "indexed": true,
          "internalType": "address",
          "name": "previousOwner",
          "type": "address"
        },
        {
          "indexed": true,
          "internalType": "address",
          "name": "newOwner",
          "type": "address"
        }
      ],
      "name": "OwnershipTransferred",
      "type": "event"
    },
    {
      "anonymous": false,
      "inputs": [
        {
          "indexed": true,
          "internalType": "address",
          "name": "operator",
          "type": "address"
        },
        {
          "indexed": true,
          "internalType": "address",
          "name": "from",
          "type": "address"
        },
        {
          "indexed": true,
          "internalType": "address",
          "name": "to",
          "type": "address"
        },
        {
          "indexed": false,
          "internalType": "uint256[]",
          "name": "ids",
          "type": "uint256[]"
        },
        {
          "indexed": false,
          "internalType": "uint256[]",
          "name": "values",
          "type": "uint256[]"
        }
      ],
      "name": "TransferBatch",
      "type": "event"
    },
    {
      "anonymous": false,
      "inputs": [
        {
          "indexed": true,
          "internalType": "address",
          "name": "operator",
          "type": "address"
        },
        {
          "indexed": true,
          "internalType": "address",
          "name": "from",
          "type": "address"
        },
        {
          "indexed": true,
          "internalType": "address",
          "name": "to",
          "type": "address"
        },
        {
          "indexed": false,
          "internalType": "uint256",
          "name": "id",
          "type": "uint256"
        },
        {
          "indexed": false,
          "internalType": "uint256",
          "name": "value",
          "type": "uint256"
        }
      ],
      "name": "TransferSingle",
      "type": "event"
    },
    {
      "anonymous": false,
      "inputs": [
        {
          "indexed": false,
          "internalType": "string",
          "name": "value",
          "type": "string"
        },
        {
          "indexed": true,
          "internalType": "uint256",
          "name": "id",
          "type": "uint256"
        }
      ],
      "name": "URI",
      "type": "event"
    },
    {
      "inputs": [
        {
          "internalType": "address",
          "name": "account",
          "type": "address"
        },
        {
          "internalType": "uint256",
          "name": "id",
          "type": "uint256"
        }
      ],
      "name": "balanceOf",
      "outputs": [
        {
          "internalType": "uint256",
          "name": "",
          "type": "uint256"
        }
      ],
      "stateMutability": "view",
      "type": "function"
    },
    {
      "inputs": [
        {
          "internalType": "address[]",
          "name": "accounts",
          "type": "address[]"
        },
        {
          "internalType": "uint256[]",
          "name": "ids",
          "type": "uint256[]"
        }
      ],
      "name": "balanceOfBatch",
      "outputs": [
        {
          "internalType": "uint256[]",
          "name": "",
          "type": "uint256[]"
        }
      ],
      "stateMutability": "view",
      "type": "function"
    },
    {
      "inputs": [
        {
          "internalType": "address",
          "name": "from",
          "type": "address"
        },
        {
          "internalType": "uint256",
          "name": "id",
          "type": "uint256"
        },
        {
          "internalType": "uint256",
          "name": "amount",
          "type": "uint256"
        }
      ],
      "name": "burn",
      "outputs": [],
      "stateMutability": "nonpayable",
      "type": "function"
    },
    {
      "inputs": [
        {
          "internalType": "address",
          "name": "from",
          "type": "address"
        },
        {
          "internalType": "uint256",
          "name": "courseId",
          "type": "uint256"
        },
        {
          "internalType": "uint256",
          "name": "amount",
          "type": "uint256"
        }
      ],
      "name": "burnMembership",
      "outputs": [],
      "stateMutability": "nonpayable",
      "type": "function"
    },
    {
      "inputs": [
        {
          "internalType": "address",
          "name": "account",
          "type": "address"
        },
        {
          "internalType": "address",
          "name": "operator",
          "type": "address"
        }
      ],
      "name": "isApprovedForAll",
      "outputs": [
        {
          "internalType": "bool",
          "name": "",
          "type": "bool"
        }
      ],
      "stateMutability": "view",
      "type": "function"
    },
    {
      "inputs": [
        {
          "internalType": "address",
          "name": "to",
          "type": "address"
        },
        {
          "internalType": "uint256",
          "name": "id",
          "type": "uint256"
        },
        {
          "internalType": "uint256",
          "name": "amount",
          "type": "uint256"
        }
      ],
      "name": "mint",
      "outputs": [],
      "stateMutability": "nonpayable",
      "type": "function"
    },
    {
      "inputs": [
        {
          "internalType": "address",
          "name": "to",
          "type": "address"
        },
        {
          "internalType": "uint256",
          "name": "courseId",
          "type": "uint256"
        },
        {
          "internalType": "uint256",
          "name": "amount",
          "type": "uint256"
        }
      ],
      "name": "mintMembership",
      "outputs": [],
      "stateMutability": "nonpayable",
      "type": "function"
    },
    {
      "inputs": [],
      "name": "owner",
      "outputs": [
        {
          "internalType": "address",
          "name": "",
          "type": "address"
        }
      ],
      "stateMutability": "view",
      "type": "function"
    },
    {
      "inputs": [],
      "name": "renounceOwnership",
      "outputs": [],
      "stateMutability": "nonpayable",
      "type": "function"
    },
    {
      "inputs": [
        {
          "internalType": "address",
          "name": "from",
          "type": "address"
        },
        {
          "internalType": "address",
          "name": "to",
          "type": "address"
        },
        {
          "internalType": "uint256[]",
          "name": "ids",
          "type": "uint256[]"
        },
        {
          "internalType": "uint256[]",
          "name": "values",
          "type": "uint256[]"
        },
        {
          "internalType": "bytes",
          "name": "data",
          "type": "bytes"
        }
      ],
      "name": "safeBatchTransferFrom",
      "outputs": [],
      "stateMutability": "nonpayable",
      "type": "function"
    },
    {
      "inputs": [
        {
          "internalType": "address",
          "name": "from",
          "type": "address"
        },
        {
          "internalType": "address",
          "name": "to",
          "type": "address"
        },
        {
          "internalType": "uint256",
          "name": "id",
          "type": "uint256"
        },
        {
          "internalType": "uint256",
          "name": "value",
          "type": "uint256"
        },
        {
          "internalType": "bytes",
          "name": "data",
          "type": "bytes"
        }
      ],
      "name": "safeTransferFrom",
      "outputs": [],
      "stateMutability": "nonpayable",
      "type": "function"
    },
    {
      "inputs": [
        {
          "internalType": "address",
          "name": "operator",
          "type": "address"
        },
        {
          "internalType": "bool",
          "name": "approved",
          "type": "bool"
        }
      ],
      "name": "setApprovalForAll",
      "outputs": [],
      "stateMutability": "nonpayable",
      "type": "function"
    },
    {
      "inputs": [
        {
          "internalType": "bytes4",
          "name": "interfaceId",
          "type": "bytes4"
        }
      ],
      "name": "supportsInterface",
      "outputs": [
        {
          "internalType": "bool",
          "name": "",
          "type": "bool"
        }
      ],
      "stateMutability": "view",
      "type": "function"
    },
    {
      "inputs": [
        {
          "internalType": "uint256",
          "name": "",
          "type": "uint256"
        }
      ],
      "name": "totalSupply",
      "outputs": [
        {
          "internalType": "uint256",
          "name": "",
          "type": "uint256"
        }
      ],
      "stateMutability": "view",
      "type": "function"
    },
    {
      "inputs": [
        {
          "internalType": "address",
          "name": "newOwner",
          "type": "address"
        }
      ],
      "name": "transferOwnership",
      "outputs": [],
      "stateMutability": "nonpayable",
      "type": "function"
    },
    {
      "inputs": [
        {
          "internalType": "uint256",
          "name": "",
          "type": "uint256"
        }
      ],
      "name": "uri",
      "outputs": [
        {
          "internalType": "string",
          "name": "",
          "type": "string"
        }
      ],
      "stateMutability": "view",
      "type": "function"
    }
  ],
  "bytecode": "0x608060405234801561000f575f5ffd5b506040516116af3803806116af83398101604081905261002e916100ec565b338161003981610077565b506001600160a01b03811661006757604051631e4fbdf760e01b81525f600482015260240160405180910390fd5b61007081610087565b50506102da565b60026100838282610220565b5050565b600380546001600160a01b038381166001600160a01b0319831681179093556040519116919082907f8be0079c531659141344cd1fd0a4f28419497f9722a3daafe3b4186f6b6457e0905f90a35050565b634e487b7160e01b5f52604160045260245ffd5b5f602082840312156100fc575f5ffd5b81516001600160401b03811115610111575f5ffd5b8201601f81018413610121575f5ffd5b80516001600160401b0381111561013a5761013a6100d8565b604051601f8201601f19908116603f011681016001600160401b0381118282101715610168576101686100d8565b60405281815282820160200186101561017f575f5ffd5b8160208401602083015e5f91810160200191909152949350505050565b600181811c908216806101b057607f821691505b6020821081036101ce57634e487b7160e01b5f52602260045260245ffd5b50919050565b601f82111561021b57805f5260205f20601f840160051c810160208510156101f95750805b601f840160051c820191505b81811015610218575f8155600101610205565b50505b505050565b81516001600160401b03811115610239576102396100d8565b61024d81610247845461019c565b846101d4565b6020601f82116001811461027f575f83156102685750848201515b5f19600385901b1c1916600184901b178455610218565b5f84815260208120601f198516915b828110156102ae578785015182556020948501946001909201910161028e565b50848210156102cb57868401515f19600387901b60f8161c191681555b50505050600190811b01905550565b6113c8806102e75f395ff3fe608060405234801561000f575f5ffd5b50600436106100fa575f3560e01c80638c63114011610093578063e985e9c511610063578063e985e9c514610217578063f242432a14610252578063f2fde38b14610265578063f5298aca1461017c575f5ffd5b80638c631140146101675780638da5cb5b146101ca578063a22cb465146101e5578063bd85b039146101f8575f5ffd5b80631bef6e15116100ce5780631bef6e151461017c5780632eb2c2d61461018f5780634e1273f4146101a2578063715018a6146101c2575f5ffd5b8062fdd58e146100fe57806301ffc9a7146101245780630e89341c14610147578063156e29f614610167575b5f5ffd5b61011161010c366004610d8b565b610278565b6040519081526020015b60405180910390f35b610137610132366004610dc8565b61029f565b604051901515815260200161011b565b61015a610155366004610dea565b6102ee565b60405161011b9190610e2f565b61017a610175366004610e41565b610380565b005b61017a61018a366004610e41565b6103c9565b61017a61019d366004610faf565b6103f9565b6101b56101b036600461105e565b610483565b60405161011b919061115b565b61017a61054e565b6003546040516001600160a01b03909116815260200161011b565b61017a6101f336600461116d565b610561565b610111610206366004610dea565b60046020525f908152604090205481565b6101376102253660046111a6565b6001600160a01b039182165f90815260016020908152604080832093909416825291909152205460ff1690565b61017a6102603660046111d7565b610570565b61017a61027336600461122b565b6105ed565b5f818152602081815260408083206001600160a01b03861684529091529020545b92915050565b5f6001600160e01b03198216636cdb3d1360e11b14806102cf57506001600160e01b031982166303a24d0760e21b145b8061029957506301ffc9a760e01b6001600160e01b0319831614610299565b6060600280546102fd90611244565b80601f016020809104026020016040519081016040528092919081815260200182805461032990611244565b80156103745780601f1061034b57610100808354040283529160200191610374565b820191905f5260205f20905b81548152906001019060200180831161035757829003601f168201915b50505050509050919050565b61038861062a565b6103a283838360405180602001604052805f815250610657565b5f82815260046020526040812080548392906103bf908490611290565b9091555050505050565b6103d161062a565b6103dc8383836106b2565b5f82815260046020526040812080548392906103bf9084906112a3565b336001600160a01b038616811480159061043857506001600160a01b038087165f9081526001602090815260408083209385168352929052205460ff16155b1561046e5760405163711bec9160e11b81526001600160a01b038083166004830152871660248201526044015b60405180910390fd5b61047b868686868661071f565b505050505050565b606081518351146104b45781518351604051635b05999160e01b815260048101929092526024820152604401610465565b5f835167ffffffffffffffff8111156104cf576104cf610e71565b6040519080825280602002602001820160405280156104f8578160200160208202803683370190505b5090505f5b84518110156105465760208082028601015161052190602080840287010151610278565b828281518110610533576105336112b6565b60209081029190910101526001016104fd565b509392505050565b61055661062a565b61055f5f61077d565b565b61056c3383836107e6565b5050565b336001600160a01b03861681148015906105af57506001600160a01b038087165f9081526001602090815260408083209385168352929052205460ff16155b156105e05760405163711bec9160e11b81526001600160a01b03808316600483015287166024820152604401610465565b61047b868686868661087a565b6105f561062a565b6001600160a01b03811661061e57604051631e4fbdf760e01b81525f6004820152602401610465565b6106278161077d565b50565b6003546001600160a01b0316331461055f5760405163118cdaa760e01b8152336004820152602401610465565b6001600160a01b03841661068057604051632bfa23e760e11b81525f6004820152602401610465565b6040805160018082526020820186905281830190815260608201859052608082019092529061047b5f87848487610906565b6001600160a01b0383166106da57604051626a0d4560e21b81525f6004820152602401610465565b604080516001808252602082018590528183019081526060820184905260a082019092525f6080820181815291929161071891879185908590610906565b5050505050565b6001600160a01b03841661074857604051632bfa23e760e11b81525f6004820152602401610465565b6001600160a01b03851661077057604051626a0d4560e21b81525f6004820152602401610465565b6107188585858585610906565b600380546001600160a01b038381167fffffffffffffffffffffffff0000000000000000000000000000000000000000831681179093556040519116919082907f8be0079c531659141344cd1fd0a4f28419497f9722a3daafe3b4186f6b6457e0905f90a35050565b6001600160a01b03821661080e5760405162ced3e160e81b81525f6004820152602401610465565b6001600160a01b038381165f81815260016020908152604080832094871680845294825291829020805460ff191686151590811790915591519182527f17307eab39ab6107e8899845ad3d59bd9653f200f220920489ca2b5937696c31910160405180910390a3505050565b6001600160a01b0384166108a357604051632bfa23e760e11b81525f6004820152602401610465565b6001600160a01b0385166108cb57604051626a0d4560e21b81525f6004820152602401610465565b604080516001808252602082018690528183019081526060820185905260808201909252906108fd8787848487610906565b50505050505050565b61091285858585610959565b6001600160a01b03841615610718578251339060010361094b5760208481015190840151610944838989858589610b68565b505061047b565b61047b818787878787610c89565b80518251146109885781518151604051635b05999160e01b815260048101929092526024820152604401610465565b335f5b8351811015610a8a576020818102858101820151908501909101516001600160a01b03881615610a3c575f828152602081815260408083206001600160a01b038c16845290915290205481811015610a16576040516303dee4c560e01b81526001600160a01b038a166004820152602481018290526044810183905260648101849052608401610465565b5f838152602081815260408083206001600160a01b038d16845290915290209082900390555b6001600160a01b03871615610a80575f828152602081815260408083206001600160a01b038b16845290915281208054839290610a7a908490611290565b90915550505b505060010161098b565b508251600103610b0a5760208301515f906020840151909150856001600160a01b0316876001600160a01b0316846001600160a01b03167fc3d58168c5ae7397731d063d5bbf3d657854427343f4c083240f7aacaa2d0f628585604051610afb929190918252602082015260400190565b60405180910390a45050610718565b836001600160a01b0316856001600160a01b0316826001600160a01b03167f4a39dc06d4c0dbc64b70af90fd698a233a518aa5d07e595d983b8c0526c8f7fb8686604051610b599291906112ca565b60405180910390a45050505050565b6001600160a01b0384163b1561047b5760405163f23a6e6160e01b81526001600160a01b0385169063f23a6e6190610bac90899089908890889088906004016112f7565b6020604051808303815f875af1925050508015610be6575060408051601f3d908101601f19168201909252610be39181019061133e565b60015b610c4d573d808015610c13576040519150601f19603f3d011682016040523d82523d5f602084013e610c18565b606091505b5080515f03610c4557604051632bfa23e760e11b81526001600160a01b0386166004820152602401610465565b805160208201fd5b6001600160e01b0319811663f23a6e6160e01b146108fd57604051632bfa23e760e11b81526001600160a01b0386166004820152602401610465565b6001600160a01b0384163b1561047b5760405163bc197c8160e01b81526001600160a01b0385169063bc197c8190610ccd9089908990889088908890600401611359565b6020604051808303815f875af1925050508015610d07575060408051601f3d908101601f19168201909252610d049181019061133e565b60015b610d34573d808015610c13576040519150601f19603f3d011682016040523d82523d5f602084013e610c18565b6001600160e01b0319811663bc197c8160e01b146108fd57604051632bfa23e760e11b81526001600160a01b0386166004820152602401610465565b80356001600160a01b0381168114610d86575f5ffd5b919050565b5f5f60408385031215610d9c575f5ffd5b610da583610d70565b946020939093013593505050565b6001600160e01b031981168114610627575f5ffd5b5f60208284031215610dd8575f5ffd5b8135610de381610db3565b9392505050565b5f60208284031215610dfa575f5ffd5b5035919050565b5f81518084528060208401602086015e5f602082860101526020601f19601f83011685010191505092915050565b602081525f610de36020830184610e01565b5f5f5f60608486031215610e53575f5ffd5b610e5c84610d70565b95602085013595506040909401359392505050565b634e487b7160e01b5f52604160045260245ffd5b604051601f8201601f1916810167ffffffffffffffff81118282101715610eae57610eae610e71565b604052919050565b5f67ffffffffffffffff821115610ecf57610ecf610e71565b5060051b60200190565b5f82601f830112610ee8575f5ffd5b8135610efb610ef682610eb6565b610e85565b8082825260208201915060208360051b860101925085831115610f1c575f5ffd5b602085015b83811015610f39578035835260209283019201610f21565b5095945050505050565b5f82601f830112610f52575f5ffd5b813567ffffffffffffffff811115610f6c57610f6c610e71565b610f7f601f8201601f1916602001610e85565b818152846020838601011115610f93575f5ffd5b816020850160208301375f918101602001919091529392505050565b5f5f5f5f5f60a08688031215610fc3575f5ffd5b610fcc86610d70565b9450610fda60208701610d70565b9350604086013567ffffffffffffffff811115610ff5575f5ffd5b61100188828901610ed9565b935050606086013567ffffffffffffffff81111561101d575f5ffd5b61102988828901610ed9565b925050608086013567ffffffffffffffff811115611045575f5ffd5b61105188828901610f43565b9150509295509295909350565b5f5f6040838503121561106f575f5ffd5b823567ffffffffffffffff811115611085575f5ffd5b8301601f81018513611095575f5ffd5b80356110a3610ef682610eb6565b8082825260208201915060208360051b8501019250878311156110c4575f5ffd5b6020840193505b828410156110ed576110dc84610d70565b8252602093840193909101906110cb565b9450505050602083013567ffffffffffffffff81111561110b575f5ffd5b61111785828601610ed9565b9150509250929050565b5f8151808452602084019350602083015f5b82811015611151578151865260209586019590910190600101611133565b5093949350505050565b602081525f610de36020830184611121565b5f5f6040838503121561117e575f5ffd5b61118783610d70565b91506020830135801515811461119b575f5ffd5b809150509250929050565b5f5f604083850312156111b7575f5ffd5b6111c083610d70565b91506111ce60208401610d70565b90509250929050565b5f5f5f5f5f60a086880312156111eb575f5ffd5b6111f486610d70565b945061120260208701610d70565b93506040860135925060608601359150608086013567ffffffffffffffff811115611045575f5ffd5b5f6020828403121561123b575f5ffd5b610de382610d70565b600181811c9082168061125857607f821691505b60208210810361127657634e487b7160e01b5f52602260045260245ffd5b50919050565b634e487b7160e01b5f52601160045260245ffd5b808201808211156102995761029961127c565b818103818111156102995761029961127c565b634e487b7160e01b5f52603260045260245ffd5b604081525f6112dc6040830185611121565b82810360208401526112ee8185611121565b95945050505050565b6001600160a01b03861681526001600160a01b038516602082015283604082015282606082015260a060808201525f61133360a0830184610e01565b979650505050505050565b5f6020828403121561134e575f5ffd5b8151610de381610db3565b6001600160a01b03861681526001600160a01b038516602082015260a060408201525f61138960a0830186611121565b828103606084015261139b8186611121565b905082810360808401526113af8185610e01565b9897505050505050505056fea164736f6c634300081b000a",
  "linkReferences": {},
  "deployedLinkReferences": {}
}