{
  "_format": "hh-sol-artifact-1",
  "contractName": "MembershipMarketplace",
  "sourceName": "contracts/MembershipMarketplace.sol",
  "abi": [
    {
      "inputs": [
        {
          "internalType": "address",
          "name": "_registrar",
          "type": "address"
        },
        {
          "internalType": "address",
          "name": "_membership",
          "type": "address"
        },
        {
          "internalType": "address",
          "name": "_treasury",
          "type": "address"
        }
      ],
      "stateMutability": "nonpayable",
      "type": "constructor"
    },
    {
      "inputs": [],
      "name": "InsufficientPayment",
      "type": "error"
    },
    {
      "inputs": [],
      "name": "ZeroAddress",
      "type": "error"
    },
    {
      "anonymous": false,
      "inputs": [
        {
          "indexed": true,
          "internalType": "uint256",
          "name": "courseId",
          "type": "uint256"
        },
        {
          "indexed": true,
          "internalType": "address",
          "name": "buyer",
          "type": "address"
        },
        {
          "indexed": false,
          "internalType": "uint256",
          "name": "priceWei",
          "type": "uint256"
        }
      ],
      "name": "MembershipPurchased",
      "type": "event"
    },
    {
      "inputs": [
        {
          "internalType": "uint256",
          "name": "courseId",
          "type": "uint256"
        }
      ],
      "name": "buyMembership",
      "outputs": [],
      "stateMutability": "payable",
      "type": "function"
    },
    {
      "inputs": [],
      "name": "membership",
      "outputs": [
        {
          "internalType": "contract MembershipPass1155",
          "name": "",
          "type": "address"
        }
      ],
      "stateMutability": "view",
      "type": "function"
    },
    {
      "inputs": [],
      "name": "registrar",
      "outputs": [
        {
          "internalType": "contract Registrar",
          "name": "",
          "type": "address"
        }
      ],
      "stateMutability": "view",
      "type": "function"
    },
    {
      "inputs": [],
      "name": "treasury",
      "outputs": [
        {
          "internalType": "address",
          "name": "",
          "type": "address"
        }
      ],
      "stateMutability": "view",
      "type": "function"
    },
    {
      "stateMutability": "payable",
      "type": "receive"
    }
  ],
  "bytecode": "0x60e060405234801561000f575f5ffd5b5060405161085c38038061085c83398101604081905261002e916100db565b6001600160a01b0383166100555760405163d92e233d60e01b815260040160405180910390fd5b6001600160a01b03821661007c5760405163d92e233d60e01b815260040160405180910390fd5b6001600160a01b0381166100a35760405163d92e233d60e01b815260040160405180910390fd5b6001600160a01b0392831660805290821660a0521660c05261011b565b80516001600160a01b03811681146100d6575f5ffd5b919050565b5f5f5f606084860312156100ed575f5ffd5b6100f6846100c0565b9250610104602085016100c0565b9150610112604085016100c0565b90509250925092565b60805160a05160c0516107056101575f395f818160ac015261033101525f818160df015261041201525f8181605d015261011b01526107055ff3fe608060405260043610610041575f3560e01c80632b20e3971461004c57806361d027b31461009b578063a2bf68b9146100ce578063a432312814610101575f5ffd5b3661004857005b5f5ffd5b348015610057575f5ffd5b5061007f7f000000000000000000000000000000000000000000000000000000000000000081565b6040516001600160a01b03909116815260200160405180910390f35b3480156100a6575f5ffd5b5061007f7f000000000000000000000000000000000000000000000000000000000000000081565b3480156100d9575f5ffd5b5061007f7f000000000000000000000000000000000000000000000000000000000000000081565b61011461010f3660046104af565b610116565b005b5f5f5f7f00000000000000000000000000000000000000000000000000000000000000006001600160a01b031663a2f15556856040518263ffffffff1660e01b815260040161016791815260200190565b5f60405180830381865afa158015610181573d5f5f3e3d5ffd5b505050506040513d5f823e601f3d908101601f191682016040526101a891908101906105a7565b925092509250823410156101cf5760405163cd1c886760e01b815260040160405180910390fd5b345f5b8351811015610327575f6127108483815181106101f1576101f1610681565b602002602001015161ffff163461020891906106a9565b61021291906106c6565b90505f8111801561024e57505f6001600160a01b031685838151811061023a5761023a610681565b60200260200101516001600160a01b031614155b1561031e5761025d81846106e5565b92505f85838151811061027257610272610681565b60200260200101516001600160a01b0316826040515f6040518083038185875af1925050503d805f81146102c1576040519150601f19603f3d011682016040523d82523d5f602084013e6102c6565b606091505b505090508061031c5760405162461bcd60e51b815260206004820152600d60248201527f5061796f7574206661696c65640000000000000000000000000000000000000060448201526064015b60405180910390fd5b505b506001016101d2565b5080156103ef575f7f00000000000000000000000000000000000000000000000000000000000000006001600160a01b0316826040515f6040518083038185875af1925050503d805f8114610397576040519150601f19603f3d011682016040523d82523d5f602084013e61039c565b606091505b50509050806103ed5760405162461bcd60e51b815260206004820152601660248201527f5472656173757279207061796f7574206661696c6564000000000000000000006044820152606401610313565b505b6040516302318c4560e61b815233600482015260248101869052600160448201527f00000000000000000000000000000000000000000000000000000000000000006001600160a01b031690638c631140906064015f604051808303815f87803b15801561045b575f5ffd5b505af115801561046d573d5f5f3e3d5ffd5b50506040513481523392508791507f3040ff01f7e0ef639d0a39654b7be379473b85453c82254b1ab871accbd51edf9060200160405180910390a35050505050565b5f602082840312156104bf575f5ffd5b5035919050565b634e487b7160e01b5f52604160045260245ffd5b604051601f8201601f1916810167ffffffffffffffff81118282101715610503576105036104c6565b604052919050565b5f67ffffffffffffffff821115610524576105246104c6565b5060051b60200190565b5f82601f83011261053d575f5ffd5b815161055061054b8261050b565b6104da565b8082825260208201915060208360051b860101925085831115610571575f5ffd5b602085015b8381101561059d57805161ffff8116811461058f575f5ffd5b835260209283019201610576565b5095945050505050565b5f5f5f606084860312156105b9575f5ffd5b83519250602084015167ffffffffffffffff8111156105d6575f5ffd5b8401601f810186136105e6575f5ffd5b80516105f461054b8261050b565b8082825260208201915060208360051b850101925088831115610615575f5ffd5b6020840193505b8284101561064b5783516001600160a01b038116811461063a575f5ffd5b82526020938401939091019061061c565b80955050505050604084015167ffffffffffffffff81111561066b575f5ffd5b6106778682870161052e565b9150509250925092565b634e487b7160e01b5f52603260045260245ffd5b634e487b7160e01b5f52601160045260245ffd5b80820281158282048414176106c0576106c0610695565b92915050565b5f826106e057634e487b7160e01b5f52601260045260245ffd5b500490565b818103818111156106c0576106c061069556fea164736f6c634300081b000a",
  "linkReferences": {},
  "deployedLinkReferences": {}
}