{
  "_format": "hh-sol-artifact-1",
  "contractName": "Registrar",
  "sourceName": "contracts/Registrar.sol",
  "abi": [
    {
      "inputs": [
        {
          "internalType": "address",
          "name": "_marketplace",
          "type": "address"
        },
        {
          "internalType": "address",
          "name": "_membershipToken",
          "type": "address"
        }
      ],
      "stateMutability": "nonpayable",
      "type": "constructor"
    },
    {
      "inputs": [],
      "name": "CourseNotFound",
      "type": "error"
    },
    {
      "inputs": [],
      "name": "InvalidShares",
      "type": "error"
    },
    {
      "inputs": [],
      "name": "ZeroAddress",
      "type": "error"
    },
    {
      "anonymous": false,
      "inputs": [
        {
          "indexed": true,
          "internalType": "uint256",
          "name": "courseId",
          "type": "uint256"
        },
        {
          "indexed": false,
          "internalType": "uint256",
          "name": "priceWei",
          "type": "uint256"
        },
        {
          "indexed": false,
          "internalType": "address[]",
          "name": "payees",
          "type": "address[]"
        },
        {
          "indexed": false,
          "internalType": "uint16[]",
          "name": "sharesBps",
          "type": "uint16[]"
        },
        {
          "indexed": false,
          "internalType": "uint64",
          "name": "accessDuration",
          "type": "uint64"
        },
        {
          "indexed": false,
          "internalType": "uint64",
          "name": "transferCooldown",
          "type": "uint64"
        }
      ],
      "name": "CourseRegistered",
      "type": "event"
    },
    {
      "anonymous": false,
      "inputs": [
        {
          "indexed": true,
          "internalType": "uint256",
          "name": "courseId",
          "type": "uint256"
        },
        {
          "indexed": false,
          "internalType": "uint256",
          "name": "priceWei",
          "type": "uint256"
        },
        {
          "indexed": false,
          "internalType": "address[]",
          "name": "payees",
          "type": "address[]"
        },
        {
          "indexed": false,
          "internalType": "uint16[]",
          "name": "sharesBps",
          "type": "uint16[]"
        },
        {
          "indexed": false,
          "internalType": "uint64",
          "name": "accessDuration",
          "type": "uint64"
        },
        {
          "indexed": false,
          "internalType": "uint64",
          "name": "transferCooldown",
          "type": "uint64"
        }
      ],
      "name": "CourseUpdated",
      "type": "event"
    },
    {
      "anonymous": false,
      "inputs": [
        {
          "indexed": true,
          "internalType": "address",
          "name": "marketplace",
          "type": "address"
        }
      ],
      "name": "MarketplaceUpdated",
      "type": "event"
    },
    {
      "anonymous": false,
      "inputs": [
        {
          "indexed": true,
          "internalType": "address",
          "name": "membershipToken",
          "type": "address"
        }
      ],
      "name": "MembershipTokenUpdated",
      "type": "event"
    },
    {
      "inputs": [
        {
          "internalType": "uint256",
          "name": "courseId",
          "type": "uint256"
        }
      ],
      "name": "courseExists",
      "outputs": [
        {
          "internalType": "bool",
          "name": "",
          "type": "bool"
        }
      ],
      "stateMutability": "view",
      "type": "function"
    },
    {
      "inputs": [
        {
          "internalType": "uint256",
          "name": "courseId",
          "type": "uint256"
        }
      ],
      "name": "getCourse",
      "outputs": [
        {
          "internalType": "uint256",
          "name": "priceWei",
          "type": "uint256"
        },
        {
          "internalType": "address[]",
          "name": "payees",
          "type": "address[]"
        },
        {
          "internalType": "uint16[]",
          "name": "sharesBps",
          "type": "uint16[]"
        },
        {
          "internalType": "uint64",
          "name": "accessDuration",
          "type": "uint64"
        },
        {
          "internalType": "uint64",
          "name": "transferCooldown",
          "type": "uint64"
        },
        {
          "internalType": "bool",
          "name": "exists",
          "type": "bool"
        }
      ],
      "stateMutability": "view",
      "type": "function"
    },
    {
      "inputs": [
        {
          "internalType": "uint256",
          "name": "courseId",
          "type": "uint256"
        }
      ],
      "name": "getCourseForSale",
      "outputs": [
        {
          "internalType": "uint256",
          "name": "priceWei",
          "type": "uint256"
        },
        {
          "internalType": "address[]",
          "name": "payees",
          "type": "address[]"
        },
        {
          "internalType": "uint16[]",
          "name": "sharesBps",
          "type": "uint16[]"
        }
      ],
      "stateMutability": "view",
      "type": "function"
    },
    {
      "inputs": [],
      "name": "marketplace",
      "outputs": [
        {
          "internalType": "address",
          "name": "",
          "type": "address"
        }
      ],
      "stateMutability": "view",
      "type": "function"
    },
    {
      "inputs": [],
      "name": "membershipToken",
      "outputs": [
        {
          "internalType": "address",
          "name": "",
          "type": "address"
        }
      ],
      "stateMutability": "view",
      "type": "function"
    },
    {
      "inputs": [],
      "name": "owner",
      "outputs": [
        {
          "internalType": "address",
          "name": "",
          "type": "address"
        }
      ],
      "stateMutability": "view",
      "type": "function"
    },
    {
      "inputs": [
        {
          "internalType": "uint256",
          "name": "courseId",
          "type": "uint256"
        },
        {
          "internalType": "uint256",
          "name": "priceWei",
          "type": "uint256"
        },
        {
          "internalType": "address[]",
          "name": "payees",
          "type": "address[]"
        },
        {
          "internalType": "uint256[]",
          "name": "sharesBps",
          "type": "uint256[]"
        },
        {
          "internalType": "uint256",
          "name": "accessDuration",
          "type": "uint256"
        },
        {
          "internalType": "uint256",
          "name": "transferCooldown",
          "type": "uint256"
        }
      ],
      "name": "registerCourse",
      "outputs": [],
      "stateMutability": "nonpayable",
      "type": "function"
    },
    {
      "inputs": [
        {
          "internalType": "address",
          "name": "_marketplace",
          "type": "address"
        }
      ],
      "name": "setMarketplace",
      "outputs": [],
      "stateMutability": "nonpayable",
      "type": "function"
    },
    {
      "inputs": [
        {
          "internalType": "address",
          "name": "_membershipToken",
          "type": "address"
        }
      ],
      "name": "setMembershipToken",
      "outputs": [],
      "stateMutability": "nonpayable",
      "type": "function"
    }
  ],
  "bytecode": "0x608060405234801561000f575f5ffd5b50604051610ca2380380610ca283398101604081905261002e91610123565b600280546001600160a01b031916331790556001600160a01b0382166100675760405163d92e233d60e01b815260040160405180910390fd5b5f80546001600160a01b0319166001600160a01b038416908117825560405190917f210690abd7fd6cdbb8f2beb202b2a253d58d7a0813b2175c4172c14c0c1af6dc91a26001600160a01b0381161561010157600180546001600160a01b0319166001600160a01b0383169081179091556040517f9a7ea5291deecbd3afb868f0980f05eed238ed80c812695dc5b7e36c2a8ffad2905f90a25b5050610154565b80516001600160a01b038116811461011e575f5ffd5b919050565b5f5f60408385031215610134575f5ffd5b61013d83610108565b915061014b60208401610108565b90509250929050565b610b41806101615f395ff3fe608060405234801561000f575f5ffd5b506004361061009f575f3560e01c8063635e9cfa116100725780638da5cb5b116100585780638da5cb5b14610174578063a2f1555614610187578063abc8c7af146101a9575f5ffd5b8063635e9cfa1461014e57806373ad6c2d14610161575f5ffd5b8063034f6436146100a35780630b91e28d146100b85780635407b304146100e657806362ad351b14610123575b5f5ffd5b6100b66100b136600461084e565b6101bb565b005b6100cb6100c636600461086e565b610238565b6040516100dd969594939291906108fc565b60405180910390f35b6101136100f436600461086e565b5f9081526003602081905260409091200154600160801b900460ff1690565b60405190151581526020016100dd565b600154610136906001600160a01b031681565b6040516001600160a01b0390911681526020016100dd565b6100b661015c36600461099a565b610392565b6100b661016f36600461084e565b61056f565b600254610136906001600160a01b031681565b61019a61019536600461086e565b6105ea565b6040516100dd93929190610a2a565b5f54610136906001600160a01b031681565b6001600160a01b0381166101e25760405163d92e233d60e01b815260040160405180910390fd5b6001805473ffffffffffffffffffffffffffffffffffffffff19166001600160a01b0383169081179091556040517f9a7ea5291deecbd3afb868f0980f05eed238ed80c812695dc5b7e36c2a8ffad2905f90a250565b5f818152600360208190526040822090810154606091829184918291829190600160801b900460ff1661027e5760405163ee8fc9d160e01b815260040160405180910390fd5b8054600382015460018084018054604080516020808402820181019092528281529294600288019467ffffffffffffffff8083169568010000000000000000909304169390928791908301828280156102fe57602002820191905f5260205f20905b81546001600160a01b031681526001909101906020018083116102e0575b505050505094508380548060200260200160405190810160405280929190818152602001828054801561037557602002820191905f5260205f20905f905b82829054906101000a900461ffff1661ffff168152602001906002019060208260010104928301926001038202915080841161033c5790505b505050505093509650965096509650965096505091939550919395565b8483146103b257604051636edcc52360e01b815260040160405180910390fd5b5f808467ffffffffffffffff8111156103cd576103cd610a5e565b6040519080825280602002602001820160405280156103f6578160200160208202803683370190505b5090505f5b8581101561046f5786868281811061041557610415610a72565b90506020020135836104279190610a86565b925086868281811061043b5761043b610a72565b9050602002013582828151811061045457610454610a72565b61ffff909216602092830291909101909101526001016103fb565b5061271082111561049357604051636edcc52360e01b815260040160405180910390fd5b5f8a81526003602052604090208981556104b1600182018a8a610714565b5081516104c79060028301906020850190610782565b5060038101805470ff000000000000000000000000000000001967ffffffffffffffff87811668010000000000000000026fffffffffffffffffffffffffffffffff19909316908916179190911716600160801b1790556040518b907fcc8402f9a633db10026faf235a57988fc891b067f0fe8fc7a50d0cd86046a0e89061055a908d908d908d9088908c908c90610aab565b60405180910390a25050505050505050505050565b6001600160a01b0381166105965760405163d92e233d60e01b815260040160405180910390fd5b5f805473ffffffffffffffffffffffffffffffffffffffff19166001600160a01b038316908117825560405190917f210690abd7fd6cdbb8f2beb202b2a253d58d7a0813b2175c4172c14c0c1af6dc91a250565b5f8181526003602081905260408220908101546060918291600160801b900460ff166106295760405163ee8fc9d160e01b815260040160405180910390fd5b805f015481600101826002018180548060200260200160405190810160405280929190818152602001828054801561068857602002820191905f5260205f20905b81546001600160a01b0316815260019091019060200180831161066a575b50505050509150808054806020026020016040519081016040528092919081815260200182805480156106ff57602002820191905f5260205f20905f905b82829054906101000a900461ffff1661ffff16815260200190600201906020826001010492830192600103820291508084116106c65790505b50505050509050935093509350509193909250565b828054828255905f5260205f20908101928215610772579160200282015b8281111561077257815473ffffffffffffffffffffffffffffffffffffffff19166001600160a01b03843516178255602090920191600190910190610732565b5061077e92915061081f565b5090565b828054828255905f5260205f2090600f01601090048101928215610772579160200282015f5b838211156107e857835183826101000a81548161ffff021916908361ffff16021790555092602001926002016020816001010492830192600103026107a8565b80156108165782816101000a81549061ffff02191690556002016020816001010492830192600103026107e8565b505061077e9291505b5b8082111561077e575f8155600101610820565b80356001600160a01b0381168114610849575f5ffd5b919050565b5f6020828403121561085e575f5ffd5b61086782610833565b9392505050565b5f6020828403121561087e575f5ffd5b5035919050565b5f8151808452602084019350602083015f5b828110156108be5781516001600160a01b0316865260209586019590910190600101610897565b5093949350505050565b5f8151808452602084019350602083015f5b828110156108be57815161ffff168652602095860195909101906001016108da565b86815260c060208201525f61091460c0830188610885565b828103604084015261092681886108c8565b67ffffffffffffffff96871660608501529490951660808301525090151560a090910152949350505050565b5f5f83601f840112610962575f5ffd5b50813567ffffffffffffffff811115610979575f5ffd5b6020830191508360208260051b8501011115610993575f5ffd5b9250929050565b5f5f5f5f5f5f5f5f60c0898b0312156109b1575f5ffd5b8835975060208901359650604089013567ffffffffffffffff8111156109d5575f5ffd5b6109e18b828c01610952565b909750955050606089013567ffffffffffffffff811115610a00575f5ffd5b610a0c8b828c01610952565b999c989b5096999598969760808701359660a0013595509350505050565b838152606060208201525f610a426060830185610885565b8281036040840152610a5481856108c8565b9695505050505050565b634e487b7160e01b5f52604160045260245ffd5b634e487b7160e01b5f52603260045260245ffd5b80820180821115610aa557634e487b7160e01b5f52601160045260245ffd5b92915050565b86815260a06020820181905281018590525f8660c08301825b88811015610af2576001600160a01b03610add84610833565b16825260209283019290910190600101610ac4565b508381036040850152610b0581886108c8565b9250505067ffffffffffffffff8416606083015267ffffffffffffffff8316608083015297965050505050505056fea164736f6c634300081b000a",
  "linkReferences": {},
  "deployedLinkReferences": {}
}