{
  "_format": "hh-sol-artifact-1",
  "contractName": "VerifierMock",
  "sourceName": "contracts/FHE/mocks/VerifierMock.sol",
  "abi": [
    {
      "inputs": [
        {
          "internalType": "bytes",
          "name": "",
          "type": "bytes"
        }
      ],
      "name": "verify",
      "outputs": [
        {
          "internalType": "bool",
          "name": "",
          "type": "bool"
        }
      ],
      "stateMutability": "pure",
      "type": "function"
    }
  ],
  "bytecode": "0x6080604052348015600f57600080fd5b5060f78061001e6000396000f3fe6080604052348015600f57600080fd5b506004361060285760003560e01c80638e760afe14602d575b600080fd5b604060383660046054565b600192915050565b604051901515815260200160405180910390f35b60008060208385031215606657600080fd5b823567ffffffffffffffff80821115607d57600080fd5b818501915085601f830112609057600080fd5b813581811115609e57600080fd5b86602082850101111560af57600080fd5b6020929092019691955090935050505056fea2646970667358221220dea8d5f4ba220a1a0d8d04f313aeeb6b31c68ad9f8be7f51357c8f482e340f6264736f6c63430008190033",
  "linkReferences": {},
  "deployedLinkReferences": {}
}