{
  "_format": "hh-sol-artifact-1",
  "contractName": "PrivateCourseFallback",
  "sourceName": "contracts/PrivateCourseFallback.sol",
  "abi": [
    {
      "anonymous": false,
      "inputs": [
        {
          "indexed": true,
          "internalType": "uint256",
          "name": "courseId",
          "type": "uint256"
        },
        {
          "indexed": false,
          "internalType": "bytes",
          "name": "ciphertext",
          "type": "bytes"
        }
      ],
      "name": "CourseRegistered",
      "type": "event"
    },
    {
      "inputs": [
        {
          "internalType": "uint256",
          "name": "courseId",
          "type": "uint256"
        },
        {
          "internalType": "bytes",
          "name": "ciphertext",
          "type": "bytes"
        }
      ],
      "name": "registerCourse",
      "outputs": [],
      "stateMutability": "nonpayable",
      "type": "function"
    }
  ],
  "bytecode": "0x608060405234801561001057600080fd5b50610248806100206000396000f3fe608060405234801561001057600080fd5b506004361061002b5760003560e01c80639b3b8bba14610030575b600080fd5b61004a60048036038101906100459190610130565b61004c565b005b827f6d36e890ce6a99505728dd2ea59f2c98a288d8dbd019bf6f4422bb4378308dce838360405161007e9291906101ee565b60405180910390a2505050565b600080fd5b600080fd5b6000819050919050565b6100a881610095565b81146100b357600080fd5b50565b6000813590506100c58161009f565b92915050565b600080fd5b600080fd5b600080fd5b60008083601f8401126100f0576100ef6100cb565b5b8235905067ffffffffffffffff81111561010d5761010c6100d0565b5b602083019150836001820283011115610129576101286100d5565b5b9250929050565b6000806000604084860312156101495761014861008b565b5b6000610157868287016100b6565b935050602084013567ffffffffffffffff81111561017857610177610090565b5b610184868287016100da565b92509250509250925092565b600082825260208201905092915050565b82818337600083830152505050565b6000601f19601f8301169050919050565b60006101cd8385610190565b93506101da8385846101a1565b6101e3836101b0565b840190509392505050565b600060208201905081810360008301526102098184866101c1565b9050939250505056fea2646970667358221220d3bdfe38adda55f66e1bafa4ae795fa466dffe7306cb50c3726268cd293b6ac364736f6c63430008120033",
  "linkReferences": {},
  "deployedLinkReferences": {}
}