{
  "_format": "hh-sol-artifact-1",
  "contractName": "ACLMock",
  "sourceName": "contracts/FHE/mocks/ACLMock.sol",
  "abi": [
    {
      "inputs": [
        {
          "internalType": "address",
          "name": "",
          "type": "address"
        },
        {
          "internalType": "bytes32",
          "name": "",
          "type": "bytes32"
        }
      ],
      "name": "check",
      "outputs": [
        {
          "internalType": "bool",
          "name": "",
          "type": "bool"
        }
      ],
      "stateMutability": "pure",
      "type": "function"
    }
  ],
  "bytecode": "0x6080604052348015600f57600080fd5b5060c080601d6000396000f3fe6080604052348015600f57600080fd5b506004361060285760003560e01c8063253bd7b714602d575b600080fd5b604060383660046054565b600192915050565b604051901515815260200160405180910390f35b60008060408385031215606657600080fd5b82356001600160a01b0381168114607c57600080fd5b94602093909301359350505056fea2646970667358221220af9911b09f7fdc52db5358fb554c9512f4c7e23e662e2f039a709635cf013f7e64736f6c63430008190033",
  "linkReferences": {},
  "deployedLinkReferences": {}
}